:1000000011C12AC129C128C127C100C225C124C1EB
:1000100023C122C121C120C11FC11EC11DC11CC1DC
:100020001BC11AC119C1000000000000000000003F
:100030000000000B000000000000000D0C0000009C
:100040000102000F0E000005030411001000000063
:10005000060014121300000A080907161500000014
:100060000C0B18170000000D00191B1C1A00000FC4
:10007000110E101D0000001200001E1F00000014D1
:1000800022200021000000000000000008000031D4
:10009000003437000000302C323536381B00002B7E
:1000A000332D2A390000800087008F009800A100BE
:1000B000AA00B500BF00CB00D700E400F1000001AA
:1000C0000F011F013001420155016A017F019601B4
:1000D000AE01C801E30100021E023E026002850279
:1000E000AB02D402FF022C035D039003C60300049D
:1000F0003C047D04C1040A055605A805FE05590601
:10010000BA0620078D07000B17222D38424C545C8D
:1001100063696E727577787775726E69635C544C3B
:1001200042382D22170B00F5E9DED3C8BEB4ACA4CB
:100130009D97928E8B8988898B8E92979DA4ACB463
:10014000BEC8D3DEE9F5001326384957636D7478CD
:100150007978746D655B5043372B1F140B02FDF8E3
:10016000F6F4F5F6F9FD0003070A0B0C0A0803FE86
:10017000F5ECE1D5C9BDB1A59B938C8887888C939C
:100180009DA9B7C8DAED7878787878787878787833
:1001900078787878787878787878787878787878DF
:1001A00078787878787878787878787878787878CF
:1001B00078787878787878787878787878787878BF
:1001C000787878787878888888888888888888880F
:1001D000888888888888888888888888888888889F
:1001E000888888888888888888888888888888888F
:1001F000888888888888888888888888888888887F
:10020000888888888888888888888888888888886E
:10021000888888888888888888888888888888885E
:100220008888888811241FBECFEDCDBF10E0A0E6DE
:10023000B0E0E2E6F7E003C0C89531960D92A23631
:10024000B107D1F710E0A2E6B0E001C01D92A33BD8
:10025000B107E1F719D084C2D3CE1ED182E891E074
:1002600090939900809398001092970021E020933A
:10027000960086EA92E09093950080939400109205
:100280009300209392000895CFEDD0E0DEBFCDBF64
:1002900000D22AD18FEF90E095D07894DED1DDDFC7
:1002A000A3D0FFD0FDCFE82FFF27EE0FFF1FEA55A9
:1002B000FF4FC895202D3196C895802D9927982FEE
:1002C0008827820F911D4FE3BC01809162007FD18E
:1002D000809162008F5F8370809362000895E82FA1
:1002E000FF27EE0FFF1FEA55FF4FC895202D3196CF
:1002F000C895802D9927982F882764E0820F911D3B
:100300007AD108951F93CF9310916300DDD1C82F48
:1003100080919A00E82FFF27EE0FFF1FEE0FFF1FBF
:10032000EE56FF4F84E1818384E0808375D1CC2336
:1003300009F445C0C03E21F48091630081600BC088
:10034000C13E21F480916300826005C0C03F31F45A
:100350008091630084608093630031C010926300D9
:10036000812F992780FDC06881FDC06882FF12C07F
:10037000EC2FFF27EF77F070EA5DFF4FC895802DD7
:100380008111ADDF809160008C17C9F48FEF8093ED
:10039000600015C0C93209F460D1809160008C17EB
:1003A00071F0C0936000C7FD0AC0EC2FFF27EF7704
:1003B000F070EA5DFF4FC895802D811174DFCF91F9
:1003C0001F9108959C01109291001092900083E07B
:1003D0008FBD89E18EBD832F992787FD9A958BBDAF
:1003E0002ABD80E889BF089580918F008823E1F3BA
:1003F00080918F00815080938F0080918F0099278A
:100400000895809190009091910008951F920F920D
:100410000FB60F9211242F933F934F935F936F93D7
:100420007F938F939F93AF93BF93EF93FF938091AD
:10043000640086BF80919000909191000196909306
:100440009100809390008091900090919100892B71
:1004500049F480918D0090918E00019690938E00CA
:1004600080938D0080918F008F5F80938F006ED17D
:10047000FF91EF91BF91AF919F918F917F916F917C
:100480005F914F913F912F910F900FBE0F901F9052
:10049000189580936400089510929200109296002F
:1004A0000895CF93DF93C2E9D0E010929A0088813B
:1004B000882379F082FF0AC08981882311F0815056
:1004C00089838981882329F481E08883EA81FB81FB
:1004D000099580919A008F5F80939A0024968230CC
:1004E00030F3DF91CF910895BA9A83E880BF81E01D
:1004F00083BF80E886BF83E0ABE9B0E0E3EAF0E0E9
:10050000119211921D921D92815087FFF9CF08958B
:1005100040E085958595262F332726FD482F859524
:1005200025FD480F859524FD480F859523FD480F2F
:10053000859522FD480F859521FD480F859520FD65
:10054000480F842F992787FD90950895CF92DF92C9
:10055000EF92FF920F931F93CF93DF93EE240FEA56
:1005600010E043E0F42E33EAC32E30E0D32ECBE983
:10057000D0E0D801EC9188819981D6012D913D91EF
:100580006D01820F931F99838883892F99278F7319
:10059000EE3108F4EEE1E80FEE51FF27EA5FFE4F7F
:1005A000C895802DF80161918F01B2DFE80EFA94B1
:1005B0002296F7FEDECF8E2D80586BDFDF91CF9134
:1005C0001F910F91FF90EF90DF90CF9008958430AE
:1005D00088F4A82FBB27FD01EA0FFB1FED55FF4F45
:1005E00071836083FD01E155FF4F4083A555BF4FE7
:1005F00081E08C930895AC01EBEAF0E023E0A3EAFC
:10060000B0E08D919D918417950709F46083215086
:10061000319627FFF6CF0895809165008150809331
:10062000650099278F719070892BB1F4ABEAB0E027
:10063000EFEAF0E023E08081882349F09C9191303B
:1006400011F4883221F0891B87FD80E080832150DE
:100650003196119627FFEFCF0895CF93DF9391E066
:100660002BEA30E0CFEAD0E083E0ABE9B0E043EA48
:1006700050E0FA0111921192AF011D921D92199250
:10068000F90191939F01815087FFF3CFDF91CF91C3
:10069000089510926800109269008BE080936700C3
:1006A00010928C0010928B000895E0916900809167
:1006B0006800E81719F480E090E00895FF27E659F4
:1006C000FF4F8081992708952091690080916800EB
:1006D000281719F480E090E00895E22FFF27E659EB
:1006E000FF4F80812F5F2F71209369009927089514
:1006F00080916700B0990EC08350883030F58091AA
:100700008A00869580938A00B19B1FC08068809381
:100710008A0008958150809367008823B1F4809106
:100720008A0090916800882369F0E92FFF27E65935
:10073000FF4F80839F5F9F7180916900981711F030
:10074000909368008BE080936700089596B3917052
:1007500080916100891719F090936100C9DF0895B5
:02076000FFCFC9
:02076200FF0195
:00000001FF
