:1000000042C041C0B9C20600FF0901A10115002686
:10001000FF007508850195060900B2020185029569
:100020001E0900B20201850395260900B20201C033
:1000300009021B00010100803209040000000300D6
:100040000000092101010001222A00120110010013
:10005000000008C016DF050001010203010A033099
:1000600000300030003000100348004900440061B7
:10007000007300700078000A0359004300490054DF
:1000800000040309040011241FBECFEDCDBFA0E67C
:10009000B0E0E2EDF7E005900D92A236E1F71D9297
:1000A000A53BE9F735C1CF93DF93E4E6F0E0CE2F2F
:1000B000DF2F21978191882309F44BC0782F7F731C
:1000C00087FF0EC060E06717A8F78191B82E982FC0
:1000D000907F98BB8295807FB82E88BB6F5FF3CFEF
:1000E000DD24BD2CCD2C91E0A92EC4986D2DD71602
:1000F00070F5472F552741505040282F3327207443
:100100003070A0E0B0E0C798DD2021F4B190CC249D
:1001100081E0A82E8B2D8A2111F0C69A01C0C698C5
:10012000A417B50731F42115310511F0C49A01C0A7
:10013000C498B599CA28C79AAA0CD39488E0D8164F
:1001400011F4C992DD246F5F11966717E0F2C8823F
:10015000B1CFDF91CF910895CF939AE19DB98FB937
:1001600080E48EB9C92DC33018F0E6D0C150FBCF62
:100170008BE18DB9769BF6CF1DB88FB19927CF91C2
:1001800008950F931F93CF93DF93209163001091F5
:100190006400922F9E7F8AE5809363002230F9F4F9
:1001A0008091650084FF04C08FE087BB8BE012C0A4
:1001B00087FF05C0C79A84E6BAD0C7980CC08FEDF8
:1001C00087BBC498C79886E0B2D0C49A84E6AFD003
:1001D00088B3877E88BB8AEA809363005AC09433D1
:1001E00011F461DF56C0903151F4C3E6D0E013E062
:1001F0008981B2DF8993115017FFFACF4AC02431A9
:1002000021F4612E7724872C44C09032F9F400E069
:10021000011708F03EC0C3E6D0E0862D9DDF882D93
:100220009BDF872D99DF8A8197DF8883862D8878E9
:1002300031F0739409F4839487EF682202C088E058
:10024000682A0F5F2196011740F323C02C3311F465
:10025000912E1FC09E33E9F4E0916500F091660095
:100260002F3359F490E09117A0F4A3E6B0E0819108
:100270008D939F5F9117D8F30CC0209167009091E8
:100280006800992329F080818923822B808301C013
:100290002083DF91CF911F910F910895F92FE82FBF
:1002A0008081807691818032A9F4913061F48281DD
:1002B0008093620082E690E090939A008093990088
:1002C000868199270895993029F4442456808FEF28
:1002D00090E0089580E090E00895B92FA82F561679
:1002E00008F4652D561A20E0261748F4E42DFF2760
:1002F000EE59FF4F9D91908343942F5FF5CF55208A
:1003000021F43FDF81E090E0089580E090E00895DF
:10031000CFEDD0E0DEBFCDBF959A87EE81BB8BE0FD
:1003200088BB8FE087BB08D1789407D0FECF98E2D6
:100330009150F1F78150D9F70895CF93DF936091F1
:100340009B00635067FDA8C080919800CBEAD0E085
:10035000C81BD109809197008D3209F086C06830A2
:1003600009F094C083EC80938B008AE58093600051
:1003700010928A008881807621F08C2F9D2F8EDF4D
:1003800060C044E950E02A818093940099819923C8
:1003900021F48093950082E050C0953019F42093A9
:1003A0009C004BC09630E1F5382F8B81813021F4D1
:1003B00032E18BE490E02BC0823021F43BE180E31A
:1003C00090E025C08330C1F4222321F434E081E899
:1003D00090E01DC0213021F43AE087E790E017C09B
:1003E000223021F430E187E690E011C0233099F407
:1003F0003AE08DE590E00BC0813221F439E082E4EF
:1004000090E005C0823239F43AE286E090E09093C1
:100410009A008093990080E480938A00832F11C012
:10042000983019F44EE950E007C0993019F4209340
:100430009E0003C09A3009F481E050939A004093E3
:100440009900982F8F3F39F4888187FD9E8180E83D
:1004500080938A0007C08F81882321F48E818917B9
:1004600008F4982F9093610011C080918A0087FF53
:100470000DC08C2F9D2F31DF8F3F21F48EE18093B3
:10048000600004C0882311F01092610080919B00ED
:10049000181614F410929B008091600084FF3FC0F6
:1004A000809161008F3F09F43AC0682F893008F0CD
:1004B00068E0861B8093610080918B0098E8892713
:1004C00080938B00ACE8B0E06623C1F0962FE091FA
:1004D0009900F0919A0080918A0086FF07C0C89524
:1004E000802D8D9331969150D1F704C081918D93D9
:1004F0009150E1F7F0939A00E09399007727C62F87
:10050000693038F48CE890E033D0CC5FCC3028F4FC
:1005100001C0CEE18FEF80936100C093600094E151
:1005200080B3887131F49150D9F790939C009093E7
:100530009600DF91CF91089585B78C6085BF8BB70A
:1005400080688BBF0895A82FB92F80E090E041E02C
:1005500050EA609530E009C02D91822797958795E4
:1005600010F084279527305EC8F36F5FA8F30895D5
:10057000EADF8D939D930895CF93CFB7CF93C39523
:10058000849BE9F7849B09C0849B07C0849B05C0BA
:10059000849B03C0849B01C0A1C0DF93C0919800DD
:1005A000DD27C156DF4F849B02C0DF91EBCF2F9335
:1005B0000F931F9300B32FEF04FB20F94F933F934A
:1005C00010B34FEF012704FB21F93BE031C04E7F10
:1005D000012F10B3216028C0102F4D7F2260000032
:1005E00000B329C04B7F2460012F000010B32BC043
:1005F00010B3477F28602AC04F7E00B320612CC013
:100600004F7D10B320622FC04F7B00B3206432C0F7
:10061000422700B349934FEF0000102714FB20F945
:1006200010B31871C9F1297F91F2012704FB21F958
:1006300000B3237F89F2315058F1102714FB22F9BF
:1006400010B3277E79F2012704FB23F92F7C81F276
:1006500000B3102714FB24F92F7971F200C010B3F6
:10066000012704FB25F92F7359F200C000B31027AE
:1006700014FB26F9223040F200C010B3012704FB1E
:1006800027F9243028F64F77206810B30000F9CFFF
:1006900010E81ABF002717C03B503195C31BD0404C
:1006A00010E81ABF0881033CE9F00B34D9F020911F
:1006B00096001981110F1213EDCF093641F10D3259
:1006C00011F0013E39F700939D003F914F911F912A
:1006D0000F912F91DF91CAB7C7FD51CFCF91CFBFF7
:1006E000CF91189520919D00222379F310919B00C2
:1006F000112311F5343012F130939B0020939700B1
:10070000109198003BE0311B3093980017C0009186
:100710009B0001308CF40AE53091600034FD10C07C
:1007200000936000CBE8D0E00FC02795A8F45150AB
:10073000A9F4220F0000F9CF4AE503C042ED01C041
:10074000432FC4E1D0E032E011B31861949A11BB99
:1007500002B320E418E15F93012756E002BB27951E
:1007600020F4515021F4220FF9CF012756E0000068
:100770003B5A02BBD0F2279528F4515029F4220F9E
:100780000000F9CF012756E0279502BB20F4515015
:1007900021F4220FF9CF012756E02991332302BB20
:1007A00021F6077E10919C00110FC651D04002BB6C
:1007B00011F01093960010E81ABF006111B3177E74
:1007C000402F477E5F9100C000C002BB11BB42BBFF
:0207D0007CCFDC
:0207D2005AFFCC
:00000001FF
