:10000000B828B828B828B828B5287F3982071C3402
:100010001B3423342B34333434341A342234213413
:100020002A340034323415341D3424342D3435341C
:100030002C3416341E342634253436342E345534BC
:1000400046343D344E343E3445345B3444343C34E1
:10005000543443344D345A344B343B3452344234A8
:100060004C345D3441344A3431343A3449340D34FB
:1000700029340E3466340034763414341134123496
:1000800058341434EB34F434F234F534003400349E
:10009000713400347C3400347934003477340034E3
:1000A00000340034CA34DA3400347B340034003491
:1000B00055347034693472347A346B347334743434
:1000C0006C34003475347D3400340034003403342F
:1000D0000B34833404340A3401340034783400346B
:1000E000003400347E3400340934003407340034E2
:1000F0000034F034EC34FD34F1340C34E93406349B
:10010000FA340534003400340034003400348207FB
:10011000003400340034003400340034C034073478
:10012000003400340034003400340034003400342F
:10013000820701340234043408341034203440344B
:1001400080348207E829EB29E729ED29E729F529F9
:10015000FA29FE29FF29FF29022A042A062A082A49
:100160000A2A0C2A0E2A102A122A00000B10090053
:10017000000083168B1300308100E33085000330CC
:1001800097008600831286140614F420003056224D
:10019000F420AA30C02103309E0096010C21940166
:1001A000603093007F308E009413DC213921941B42
:1001B000CF2856210319CF289618CF28930BD22881
:1001C00015088E00B1210C309300D2280630EB28A0
:1001D0000E30EB28F8309800980BEC280800EA2045
:1001E000EA20EA203230EB2800309200EF20EF20A6
:1001F000920BF628080024300F0784000800FB202B
:10020000100800050800FB20100880040800FB20EF
:100210001008FF3A800508008F0110309200FB2083
:1002200080018F0A920B0F2908000F088720100504
:100230000800103092000030910024301107840033
:1002400011088720FF3A0005031D0800910A920B50
:100250001D29003908008F008F0C8F0C0F0C0F39EF
:100260008F000E080739982090000800B1215B210B
:1002700008008522230A0319080023087F398E000D
:100280002B219417A31B4C290321B1211521031DF8
:1002900008000E08950008000721161C5B210E08B7
:1002A0001502031D08007F309500080015088E0018
:1002B0002B21FF2008000E080520003803196A29A9
:1002C000920090301202031C6729E030C021F03008
:1002D000C021BD290E08693C031973290E08713C21
:1002E00003197D2908002B187B292A1B7B297C30C8
:1002F000A1211230A1297C30A12908000E08693CF7
:10030000031987290E08713C03198F2908002B183F
:100310008D292A1B8D291230AB217C30AB292B185B
:100320009E292A1B9E291430A8217730C021E13054
:10033000C0211430A5217730A52108007E30AB21E3
:100340007E309200E030C021A6299200F030AD2925
:100350009200E130AD299200E030C0211208C021A6
:1003600008000E080520003803197E2992009030FD
:100370001202031CBF29E030C0217F309205120811
:100380009C009B00861CDE21D62101309A0008309B
:1003900099001B089A069B0CD221990BC9299A0C2B
:1003A000D221D429031CD629C122D729BA22E6207A
:1003B000AD22E820B422080086180800861CDE2939
:1003C000061808001D22ED301D020318A1280800A0
:1003D000082215220800EE30C029082215221D0827
:1003E0000319F4299E00080008000822AB30C02140
:1003F0008330C029082215221D089F00082A0822E0
:100400001522E3299610082A1610082A1614082A1D
:10041000FA30C0299610082A1610082A1614082A3D
:100420001C08C0290822AA30C02900309D00861867
:10043000172A861C192A061808009A1708309900EE
:1004400031229D0C1D0880399A06990B202A3122F1
:100450003122E820BA22E620AD22E620B422C122D1
:100460000800E820AD22E620AD2203100618031490
:100470000800031C422A0030850047220130850015
:100480003430EB28003085004022013085001B30DD
:10049000EB280830A100A00D3922A10B4B2A422ADB
:1004A00000308500EF2001308500402AA000A822FE
:1004B00050224922A3220800A1010310051C0800B4
:1004C000A10B5E2A031408000230A0005C22031C6A
:1004D000702AA00B662A031408005C220318080087
:1004E000A101031005180800A10F722A03140800C7
:1004F000A2010830A0006D22031808002108193C51
:10050000A20DA00B7B2A03100800220A03198D2AD2
:100510002208A300FF30A2000800FF30A300A200C1
:100520002C305622642203180800782203189F2AD0
:100530002208A300782203189F2A6D220800FF30AA
:10054000A300A20008008316E33085008312080090
:100550008316E2308500831208008316971017086F
:1005600086008312860008008316971417088600F9
:10057000831208008316171017088600831286005E
:10058000080083161714170886008312080000302D
:1005900083168500831285000800013083168500CC
:0605A00083128500080033
:00000001FF
