:1000000019C033C032C031C030C02FC02EC02DC087
:100010002CC02BC02AC029C028C051C126C025C071
:1000200024C023C022C021C020C01FC01EC01DC0CC
:100030001CC01BC011241FBECFEFD4E0DEBFCDBF5C
:1000400011E0A0E0B1E0EAE1F6E002C005900D9217
:10005000A231B107D9F711E0A2E1B1E001C01D92D0
:10006000A636B107E1F760D0D6C2CACFDF93CF93EF
:1000700000D000D000D0CDB7DEB7DE011196E0E0B1
:10008000F1E086E001900D928150E1F7809122012C
:1000900090E0880F991FFE013196E80FF91F8081CB
:1000A000918126960FB6F894DEBF0FBECDBFCF91DB
:1000B000DF91089530911301332311F081E089B964
:1000C00080914A01882399F48091430101C08A50AC
:1000D0008A30ECF7882359F480914301882339F062
:1000E00080911F0190912001292F217001C020E0F3
:1000F00080914301882359F480914A0185303CF472
:1001000080911F019091200102970CF421E033238C
:1001100021F4222331F0509A04C0222311F4509884
:100120004898209313010895DF93CF9300D000D017
:10013000CDB7DEB718B88EEF87B980E38BB98AB92F
:1001400015B88FE384B910927C0086E880937A001A
:1001500081E080937E008FE097E286D078948AE5F4
:1001600090E09093550180935401109253011092A6
:10017000520121E02093510186E091E090935A01D1
:100180008093590110925801109257012093560103
:1001900080E892E090935F0180935E0110925D0190
:1001A00010925C0120935B01298386E08A8387E0BB
:1001B0008B838C8320932201AE014F5F5F4FFA0146
:1001C000A1E0B0E0BE016C5F7F4F8E2F841B8130B9
:1001D00019F45E9A569A0EC0CD01008002C0880FB5
:1001E000991F0A94E2F780952BB128232BB92AB1E5
:1001F00082238AB93196E617F70739F78FEF809394
:100200004B011092210146D0DBD1FDCF80914301FB
:1002100060914A01772767FD7095992787FD909532
:1002200026D180911F0190912001885E934014F4A3
:1002300082E0BFD00895E0911401F0911501099575
:1002400008951092680010926B0010926C0010924A
:100250006D0010926F00F894E0E0FCE0F09315015F
:10026000E0931401099508951092500110924F01E6
:1002700023E02093800029E120938100292F332758
:1002800027FD3A95209389008093880081E0809330
:100290006F00089580914E018823E1F380914E0113
:1002A000815080934E0180914E01089580914E01BE
:1002B000089520914F0130915001C90108951F9276
:1002C0000F920FB60F9211242F938F939F938091CB
:1002D0004F019091500101969093500180934F01EE
:1002E00080914F0190915001892B49F480914C01EC
:1002F00090914D01019690934D0180934C01809116
:100300004E018F5F80934E0180911F0190912001DB
:1003100001969093200180931F0180911F0190917D
:100320002001805D97402CF11092200110921F0156
:1003300080914A018F5F80934A0180914A018C33FA
:10034000C4F010924A01809143018F5F8093430172
:10035000809143018C336CF01092430180911B011A
:100360008F5F80931B0180911B01883114F01092E4
:100370001B019F918F912F910F900FBE0F901F9097
:1003800018950000000000000000000000000000C0
:1003900000008150B1F70895A82FB0E0A370B070AD
:1003A000A95EBE4FE6E0F1E0E60FF11D80818C937F
:1003B0000895E82FF0E0E370F070E95EFE4F808171
:1003C00080688083089580911A018F3371F41092B0
:1003D0001A01809119018F3341F410921901809113
:1003E00018018F3311F4109218010895DF93CF9301
:1003F00000D000D0CDB7DEB740E003C0885E9340A8
:100400004F5F23E0883E9207CCF730E003C084566C
:1004100090403F5F84369105D4F720E002C00A97F0
:100420002F5F8A309105DCF74C833B832A838983D5
:1004300020E030E0AE014F5F5F4FD901A370B07094
:10044000A95EBE4FFA01E20FF31FE081F0E0EA5F20
:10045000FE4F80818C932F5F3F4F2430310569F729
:100460000F900F900F900F90CF91DF910895DF9331
:10047000CF9300D000D0CDB7DEB730E002C00A97EE
:100480003F5F8A309105DCF720E003C06A5070407E
:100490002F5F6A307105D4F73C838B832A8369838D
:1004A00020E030E0AE014F5F5F4FD901A370B07024
:1004B000A95EBE4FFA01E20FF31FE081F0E0EA5FB0
:1004C000FE4F80818C932F5F3F4F2430310569F7B9
:1004D0000F900F900F900F90CF91DF910895AC0186
:1004E00020E030E0F901E95EFE4FDA01A20FB31F10
:1004F0008C9180832F5F3F4F2430310599F7089509
:100500005D9885B1877C85B960911601462F50E0D2
:10051000FA01E95EFE4F8081809525B1382F377052
:10052000287F322B35B990E0887F9070959587951C
:100530009595879588B981E090E0062E02C0880FD6
:10054000991F0A94E2F7282F30E080FF02C05D9ADD
:1005500001C05D9885B12E703070220F331F220FBD
:10056000331F877C822B85B9862F8150809316019B
:100570008F3F51F483E08093160180911A01882304
:1005800019F482E0809316018091650190E0FC01EE
:10059000EE0FFF1FEE0FFF1FE80FF91FEF5AFE4F80
:1005A00082E090E09283818384E0808308951092BA
:1005B00051011092560110925B0110926001089552
:1005C0001F93CF93DF9310926501C1E5D1E011E055
:1005D0001AC08881882389F082FF0CC089819A81A2
:1005E000009719F001979A83898389819A81892BD1
:1005F00021F41883EB81FC810995809165018F5F5F
:1006000080936501259680916501843010F3DF9118
:0A061000CF911F910895F894FFCFD9
:10061A00F200FE03A6273F065B4F666D7D077F6FDC
:02062A0040008E
:00000001FF
