:1018000049C077C047C00600FF0901A101150026A5
:10181000FF007508850195060900B2020185029551
:10182000830900B20201850395260900B2020185F1
:101830000495040900B20201C0090222000101005E
:1018400080190904000001030000000921010100C2
:1018500001223300070581030800C81201100100AE
:10186000000008C016DF050001010203010A033071
:10187000003000300031000A0362006D006F006E1E
:10188000000E03410056005200650074006300041E
:101890000309040011241FBECFEFD4E0CDBFDEBF8B
:1018A00014E0A0E8B4E0EAE9FFE105900D92A23867
:1018B000B107D9F714E01D92A93BB107E1F7ADC11B
:1018C000A82FB92F80E090E041E050EA60956F5F6B
:1018D00058F42D9138EF82279795879510F084273B
:1018E00095273F5FC8F3F3CF0895EADF8D939D936B
:1018F0000895CF93CFB7CF93DF93C3954B9BE9F771
:101900004B9B11C04B9B0FC04B9B0DC04B9B0BC007
:101910004B9B09C04B9B07C04B9B05C04B9B03C017
:101920004B9B01C083C06F93C0919C04DD27CD55B4
:10193000DB4F2F9320E400C065E04B9B03C02F9149
:101940006F91DECF0F931F934F9345E55F9355E55E
:101950003F933BE014E009B10C702EC06A95C9F0CA
:101960003150D8F109B10C7001130BC008942795C0
:10197000299320E4555500F46A9569F701E069B1AF
:101980000BC0102F66E02695299320E4555518F3D7
:10199000E2CF0FEF69B10000162F455500F040402F
:1019A00066E01C700030E2F221F0000009B10C701A
:1019B00003C009B10C70A9F0011309C00894279560
:1019C00068F200C06A95A9F700E069B1E5CF102F71
:1019D00066E0269528F20000ECCF11E01CBB002742
:1019E00019C03B503195C31BD04011E01CBB08818E
:1019F000033C09F10B34F9F020919A041981110F7D
:101A00001213EDCF4A81441F093651F10D3211F006
:101A1000013E29F70093A1043F915F914F911F91DF
:101A20000F912F916F91CCB3C0FD67CFDF91CF9114
:101A3000CFBFCF9118952091A104222369F3109173
:101A40009F04112349F534304AF130939F042093C9
:101A50009B0410919C043BE0311B30939C041EC0FE
:101A600000919F040130C4F40AE54F7049F43091AD
:101A7000800434FD14C000938004CFE8D4E013C088
:101A80003AE50DC0052710E000C00BB919C00527C5
:101A900010E0221F00C01DC04AE502C032ED432FF6
:101AA000C4E1D0E032E01AB11C605B9A0BB11AB904
:101AB0005CE020E869E420FF05270BB9279517951E
:101AC00000C000001C3FF0F66695A8F7A1F720FFC4
:101AD00005270BB92795179500001C3FC0F62991E3
:101AE0003A9541F7037F1091A004110F0BB9C6512D
:101AF000D04011F010939A0411E01CBB08601AB199
:101B0000137F402F437F55E05A95F1F70BB91AB96F
:101B10004BB982CFC5E8D4E080E489831A821B8266
:101B200080E28C831D821E820895FC0131968081A3
:101B300099278633910541F18733910564F4833009
:101B4000910501F1843091051CF40197A1F00895ED
:101B5000449711F108958A33910509F18B3391056A
:101B60001CF4C897A1F008958E33910509F441C083
:101B7000CF97D1F0089588E880938604818180937F
:101B800087040895C7DF089581E0982E089581E1C4
:101B900080935700E89508956280738008950280CD
:101BA000F381E02D09950895A281B38126E834E000
:101BB0008181982F9F71807641F4482FF9018D9192
:101BC00081934F5F4917D8F30895803249F4892FE4
:101BD0009927F90101971CF0CCD10192FBCF089510
:101BE0008034D1F4892F9927AC01BD01C901B8D146
:101BF0000895A281B381948125818181807680328C
:101C000019F4092EBED10895222329F08C91822344
:101C1000892B8C9308959C930895CFEFD4E0DEBF79
:101C2000CDBF80E28BB982E48A95F1F773DF992406
:101C30004D9B87C181E085BF82E085BF292D8091C2
:101C40006900826080936900E89A539AA89588E8B1
:101C500093E10197F1F72150C9F753987894A8952B
:101C600050919F04952F935097FD0FC180919C0434
:101C7000AFEAB4E0A81BB10980919B048D3209F052
:101C8000A5C0983009F0FFC083EC80938F048AE5EB
:101C900080938004109284046C91862F8076FD01DD
:101CA000228191818823E9F0993021F488248FEFF3
:101CB00090E076C0913091F42093850485E894E01B
:101CC00090939E0480939D04243021F4F30180813D
:101CD00080938604FD018681992762C080E090E0B0
:101CE0005FC048E954E080939804992321F48093DD
:101CF000990482E051C0953019F42093A0044CC09F
:101D00009630E9F5382FFD018381813021F432E1ED
:101D10008BE598E12BC0823021F432E289E398E12F
:101D200025C08330C1F4222321F434E08FE898E108
:101D30001DC0213021F43EE081E898E117C0223037
:101D400021F43AE087E798E111C0233099F43AE0B2
:101D50008DE698E10BC0813221F439E08BE498E103
:101D600005C0823239F433E386E098E190939E0413
:101D700080939D0480E480938404832F11C0983065
:101D800019F442EA54E007C0993019F42093A204F0
:101D900003C09A3009F481E050939E0440939D045F
:101DA000982F8F3F41F467FF02C0FD01968180E8C4
:101DB0008093840408C0FD018781882321F48681F3
:101DC000891708F4982F909381045DC08091840452
:101DD00087FF59C0492F8820B1F48C91813029F4B4
:101DE000CD01A3DE21E030E044C0FD018181282F38
:101DF000332782819927982F88271901282A392A81
:101E00001496452F4750882D840F882E582F5078D0
:101E1000C3E071E065E09101C1018F739070892B7F
:101E200049F4F894F101C0935700E895789407B607
:101E300000FCFDCFF8948D919D910C01F9017093F8
:101E40005700E89511247894C10102961C018F7304
:101E50009070892B49F4F894F90160935700E89544
:101E6000789407B600FCFDCF425009F0D4CF252F5F
:101E700033272F3F21F48EE18093800404C0222376
:101E800011F01092810410929F048091800484FFCD
:101E90003FC0809181048F3F09F43AC0682F893098
:101EA00008F068E0861B8093810480918F0498E895
:101EB000892780938F04A0E9B4E06623C1F0962FB0
:101EC000E0919D04F0919E048091840486FF07C0F8
:101ED000C895802D8D9331969150D1F704C0819192
:101EE0008D939150E1F7F0939E04E0939D04772742
:101EF000C62F693038F480E994E0F7DCCC5FCC3051
:101F000028F401C0CEE18FEF80938104C093800458
:101F100094E189B18C7031F49150D9F79093A00479
:101F200090939A04992059F08091820490918304AF
:101F300001979093830480938204892B11F04D992B
:101F40008ECEF89481E180935700E8951DBA1092E7
:101F5000690081E085BF15BEEE27FF270995FFCFF9
:101F6000FB01DC0102C005900D9241505040D8F7B2
:101F70000895F999FECFB2BDA1BDF89A119600B4AB
:101F80000895F999FECFB2BDA1BD00BC11960FB660
:0A1F9000F894FA9AF99A0FBE08952A
:021F9A005AFFEC
:0400000300001800E1
:00000001FF
