:103800000C94481C0C94481C0C94781C0600FF096E
:1038100001A101150026FF00750885019506090024
:10382000B20201850295830900B202018503952643
:103830000900B20201C00902220001010080190939
:103840000400000103000000092101010001222AF7
:1038500000070581030800C81201100100000008DC
:10386000C016DF050001010203010A033000300029
:10387000300031000A0362006D006F006E000E031D
:1038800041005600520065007400630004030904FF
:1038900011241FBECFEFD4E0CDBFDEBF14E0A0E8FF
:1038A000B4E0E4EEFFE305900D92A238B107D9F73A
:1038B00014E01D92A83BB107E1F70C945F1EA82FFE
:1038C000B92F80E090E041E050EA60956F5F58F4D6
:1038D0002D9138EF82279795879510F084279527AB
:1038E0003F5FC8F3F3CF0895EADF8D939D9308956A
:1038F000CF93CFB7CF93C3954B9BE9F74B9B1DC09D
:103900004B9B1BC04B9B19C04B9B17C04B9B15C0BF
:10391000DF93C6B5D0919804C0939804CD1BC85CC2
:10392000D0916600C23012F0D15003C0CF3F0AF4EC
:10393000D395D0936600DF9145C1DF93C0919B047E
:10394000DD27CE55DB4F4B9B02C0DF91D7CF2F93A6
:103950000F931F9320E84B9921604F933F930F9251
:103960004B9922601FEF3BE0022F220F00C04B99C2
:103970000C602027087049B111F4000036C0B4C0B3
:1039800043FFC89549B12068000002274B9B0AC03D
:10399000287F11F049B188C049B11E7F4B9B4A99DD
:1039A00001C06AC043FDC89549B121604C704B9974
:1039B00008C0B9F3217F49B109F087C01D7F00C05D
:1039C00000C043FFC89549B1226000004B9B08C06E
:1039D000237E11F049B187C049B11B7F00C000C0F0
:1039E00043FDC89549B1246009934B9908C0277CD1
:1039F00011F049B187C049B1177F00C000C043FF33
:103A0000C89549B12860012F4B9B08C02F7811F051
:103A100049B187C049B10F7E00C000C043FDC895C1
:103A200049B120611FEF4B9908C02F7111F049B1C6
:103A300087C049B10F7D00C000C043FFC89549B1A0
:103A40002062315038F04B9B08C02F73223049B1AF
:103A500014F085C08EC00F7BC89543FDC89549B151
:103A6000206400004B998CCF2F77243049B10CF0A3
:103A70000AC00F77000084CF09937FC043FDC8952B
:103A800049B12068000002274B990AC0287F11F035
:103A900049B18CCF49B11E7F4B9B4A9901C0ECCFF5
:103AA00043FFC89549B121604C704B9B09C0217FF1
:103AB00019F049B100008ACF49B11D7F00C000C094
:103AC00043FDC89549B1C1F222604B9908C0237EDD
:103AD00011F049B189CF49B11B7F00C000C043FF3D
:103AE000C89549B1246009934B9B08C0277C11F00D
:103AF00049B189CF49B1177F00C000C043FDC895C7
:103B000049B12860012F4B9908C02F7811F049B1B5
:103B100089CF49B10F7E00C000C043FFC89549B1AD
:103B200020611FEF4B9B08C02F7111F049B189CF65
:103B300049B10F7D00C000C043FDC89549B1206266
:103B40003150B8F04B9907C02F73223049B10CF0B7
:103B500089CF0F7BC89543FFC89549B120644B9B23
:103B60008DCF2F77243049B10CF00FCF0F770000A5
:103B700085CF12E01CBB002719C03B503195C31BF9
:103B8000D04012E01CBB0881033C01F10B34F1F082
:103B9000209199041981110F1213EDCF4A81441F0E
:103BA000093649F10D3211F0013E29F70093A004C6
:103BB0000F903F914F911F910F912F91DF91CCB3B7
:103BC000C1FD99CECF91CFBFCF9118952091A00480
:103BD000222371F310919E04112331F5343032F118
:103BE00030939E0420939A0410919B043BE0311B78
:103BF00030939B041BC000919E040130ACF40AE595
:103C00004F7049F43091800434FD11C0009380045A
:103C1000CDE8D4E010C03AE50AC0279598F44150A9
:103C200099F4220F0000F9CF3AE501C032ED032EDE
:103C3000C0E0D0E032E01AB11C605B9A1AB90BB157
:103C400020E41CE0012746E00BB9279520F4415001
:103C500021F4220FF9CF012746E000C03B5A0BB9EF
:103C6000E0F2279528F4415029F4220F0000F9CF03
:103C7000012746E027950BB920F4415021F4220F8B
:103C8000F9CF012746E02991000033230BB929F62B
:103C9000037F10919F04110FC250D0400BB911F057
:103CA0001093990412E01CBB08601AB1137F402FD7
:103CB000437FC895C8950BB91AB94BB979CFCFEFE7
:103CC000D4E0DEBFCDBF4090660080E28BB98AE2CF
:103CD0008A95F1F7C3E8D4E080E889831A821B82D1
:103CE00080E48C831D821E8299244D9B6BC181E0F0
:103CF00085BF82E085BF292D83E085BD8091690065
:103D0000886080936900E99A539AA89580E89CE0BE
:103D10000197F1F72150C9F753987894A8955091DD
:103D20009E04952F935097FDFBC080919B04EEEA73
:103D3000F4E0E81BF10980919A048D3209F099C0F2
:103D4000983009F0EBC083EC80938D048AE5809372
:103D50008004109282046081862F80762281918176
:103D60008823B1F0993021F488248FEF90E06EC061
:103D7000913059F42093830483E894E090939D0458
:103D800080939C048681992761C080E090E05EC0AA
:103D900046E954E080939604992321F48093970494
:103DA00082E050C0953019F420939F044BC09630A8
:103DB000E1F5382F8381813021F432E188E598E301
:103DC0002BC0823021F432E286E398E325C08330B1
:103DD000C1F4222321F434E08CE898E31DC02130A3
:103DE00021F43EE08EE798E317C0223021F43AE058
:103DF00084E798E311C0233099F43AE08AE698E327
:103E00000BC0813221F439E088E498E305C08232A6
:103E100039F43AE28CE098E390939D0480939C04FB
:103E200080E480938204832F11C0983019F441EA12
:103E300054E007C0993019F42093A10403C09A30CC
:103E400009F481E050939D0440939C04982F8F3F88
:103E500031F467FD968180E88093820407C08781F2
:103E6000882321F48681891708F4982F9093810480
:103E700055C08091820487FF51C0DF01492F8820FF
:103E800069F48181282F332782819927982F8827E9
:103E90001901282A392A1496452F4750882D840F56
:103EA000882E582F5078C3E071E065E09101C10180
:103EB0008F779070892B49F4F894F101C0935700E3
:103EC000E895789407B600FCFDCFF8948D919D910C
:103ED0000C01F90170935700E89511247894C10101
:103EE00002961C018F779070892B49F4F894F901A0
:103EF00060935700E895789407B600FCFDCF4250D8
:103F000009F0D4CF252F33272F3F21F48EE1809362
:103F1000800404C0222311F04093810410929E0477
:103F20008091800484FF40C0809181048F3F09F418
:103F30003BC0682F893008F068E0861B80938104BD
:103F400080918D0498E8892780938D04AEE8B4E0D1
:103F50006623C1F0962FE0919C04F0919D0480911E
:103F6000820486FF07C0C895802D8D9331969150AD
:103F7000D1F704C081918D939150E1F7F0939D04A6
:103F8000E0939C047727C62F693040F48EE894E0D4
:103F90000E94741CCC5FCC3028F401C0CEE18FEFBE
:103FA00080938104C093800494E189B18C7031F4D2
:103FB0009150D9F790939F0490939904992011F40C
:103FC0004D99ACCEF89481E180935700E8951DBAE5
:103FD0001092690015BC81E085BF15BEEE27FF2752
:043FE0000995FFCF71
:023FE4005AFF82
:0400000300003800C1
:00000001FF
