:100000000C947B000C9498000C94B3000C94980012
:100010000C9498000C9498000C9498000C94980000
:100020000C9498000C9498000C9498000C949800F0
:100030000C9498000C9498000C9498000C949800E0
:100040000C9498000C9498000C9498000C949800D0
:100050000C9498000C9498000C9498000C949800C0
:100060000C9498000C9498000600FF0901A101155A
:100070000026FF007508850195060900B20201857A
:100080000295830900B20201850395260900B20298
:1000900001850495040900B20201C0090222000191
:1000A000010080190904000001030000000921017A
:1000B000010001223300070581030800C812011066
:1000C0000100000008C016DF050001010203010A5B
:1000D0000330003000300031000A0362006D006F11
:1000E000006E000E0341005600520065007400636C
:1000F00000040309040011241FBECFEFD4E0DEBFCB
:10010000CDBF11E0A0E0B1E0E2E9F9E002C0059066
:100110000D92A230B107D9F711E0A2E0B1E001C021
:100120001D92AE33B107E1F70E9423030C94C8047B
:100130000C940000A82FB92F80E090E041E050EA35
:1001400060956F5F58F42D9138EF822797958795CA
:1001500010F0842795273F5FC8F3F3CF0895EADFB7
:100160008D939D930895CF93CFB7CF93C3954B9B1A
:10017000E9F74B9B1DC04B9B1BC04B9B19C04B9B76
:1001800017C04B9B15C0DF93C6B5D0911E01C0931D
:100190001E01CD1BC85CD0916600C23012F0D15058
:1001A00003C0CF3F0AF4D395D0936600DF9145C1D9
:1001B000DF93C0912101DD27C85DDE4F4B9B02C05C
:1001C000DF91D7CF2F930F931F9320E84B99216096
:1001D0004F933F930F924B9922601FEF3BE0022F0A
:1001E000220F00C04B990C602027087049B111F410
:1001F000000036C0B4C043FFC89549B12068000074
:1002000002274B9B0AC0287F11F049B188C049B131
:100210001E7F4B9B4A9901C06AC043FDC89549B1F6
:1002200021604C704B9908C0B9F3217F49B109F0A6
:1002300087C01D7F00C000C043FFC89549B1226040
:1002400000004B9B08C0237E11F049B187C049B123
:100250001B7F00C000C043FDC89549B124600993CD
:100260004B9908C0277C11F049B187C049B1177F6D
:1002700000C000C043FFC89549B12860012F4B9BC7
:1002800008C02F7811F049B187C049B10F7E00C076
:1002900000C043FDC89549B120611FEF4B9908C0CC
:1002A0002F7111F049B187C049B10F7D00C000C066
:1002B00043FFC89549B12062315038F04B9B08C0CC
:1002C0002F73223049B114F085C08EC00F7BC895C2
:1002D00043FDC89549B1206400004B998CCF2F771E
:1002E000243049B10CF00AC00F77000084CF099385
:1002F0007FC043FDC89549B12068000002274B9993
:100300000AC0287F11F049B18CCF49B11E7F4B9BA9
:100310004A9901C0ECCF43FFC89549B121604C70A8
:100320004B9B09C0217F19F049B100008ACF49B128
:100330001D7F00C000C043FDC89549B1C1F22260D5
:100340004B9908C0237E11F049B189CF49B11B7F79
:1003500000C000C043FFC89549B1246009934B9B7E
:1003600008C0277C11F049B189CF49B1177F00C07F
:1003700000C043FDC89549B12860012F4B9908C0C2
:100380002F7811F049B189CF49B10F7E00C000C06C
:1003900043FFC89549B120611FEF4B9B08C02F71E7
:1003A00011F049B189CF49B10F7D00C000C043FDB4
:1003B000C89549B120623150B8F04B9907C02F73EE
:1003C000223049B10CF089CF0F7BC89543FFC89507
:1003D00049B120644B9B8DCF2F77243049B10CF06D
:1003E0000FCF0F77000085CF12E01CBB002719C08C
:1003F0003B503195C31BD04012E01CBB0881033C2D
:1004000001F10B34F1F020911F011981110F12132A
:10041000EDCF4A81441F093649F10D3211F0013EFA
:1004200029F7009326010F903F914F911F910F9153
:100430002F91DF91CCB3C1FD99CECF91CFBFCF919A
:10044000189520912601222371F310912401112384
:1004500031F5343032F13093240120932001109192
:1004600021013BE0311B309321011BC0009124018D
:100470000130ACF40AE54F7049F43091000134FDCD
:1004800011C000930001C3E1D1E010C03AE50AC0F9
:10049000279598F4415099F4220F0000F9CF3AE5DE
:1004A00001C032ED032EC0E0D0E032E01AB11C6092
:1004B0005B9A1AB90BB120E41CE0012746E00BB9A6
:1004C000279520F4415021F4220FF9CF012746E06F
:1004D00000C03B5A0BB9E0F2279528F4415029F4AB
:1004E000220F0000F9CF012746E027950BB920F431
:1004F000415021F4220FF9CF012746E02991000055
:1005000033230BB929F6037F10912501110FC25037
:10051000D0400BB911F010931F0112E01CBB086012
:100520001AB1137F402F437FC895C8950BB91AB9EC
:100530004BB979CFFC01319680819927863391059B
:1005400089F18733910564F48330910501F184309A
:1005500091051CF40197A1F00895449761F1089565
:100560008A33910579F18B3391051CF4C897F1F02A
:1005700008958E33910509F451C0CF9741F1089544
:1005800089E880930A01818180930B010895C9E075
:10059000D1E080E889831A821B8280E48C831D82EB
:1005A0001E82089581E080930801089581E180937F
:1005B0005700E89508958281938190930701809375
:1005C000060108950280F381E02D09950895A28126
:1005D000B3812AE031E08181982F9F71807641F4C8
:1005E000482FF9018D9181934F5F4917D8F30895F2
:1005F000803251F4892F9927F901019724F00E9444
:10060000B4040192FACF08958034E1F4892F992738
:10061000AC01BD01C9010E94AB040895A281B38160
:100620009481258181818076803221F4092E0E9477
:10063000BC040895222329F08C918223892B8C936A
:1006400008959C930895CFEFD4E0DEBFCDBF80EF37
:10065000809366001092080120E083E085BD8091C0
:100660006900886080936900E99A539AA89580E8A8
:100670009CE00197F1F72150C9F753987894A89519
:1006800060912401962F935097FD02C18091210122
:10069000A4E3B1E0A81BB109809120018D3209F0DB
:1006A000A9C0983009F0F2C083EC809313018AE569
:1006B00080930001109202016C91862F8076FD01DB
:1006C00022819181882309F1993029F41092050142
:1006D0008FEF90E079C09130A9F42093090189E06F
:1006E00091E09093230180932201243039F4E0912A
:1006F0000601F0910701808180930A01FD01868146
:10070000992762C080E090E05FC04CE151E08093A7
:100710001C01992321F480931D0182E051C0953082
:1007200019F4209325014CC09630E9F5382FFD01CE
:100730008381813021F432E18DEB90E02BC0823057
:1007400021F432E28BE990E025C08330C1F422230A
:1007500021F434E081EF90E01DC0213021F43EE02F
:1007600083EE90E017C0223021F43AE089ED90E06A
:1007700011C0233099F43AE08FEC90E00BC0813245
:1007800021F439E08DEA90E005C0823239F433E398
:1007900088E690E0909323018093220180E4809387
:1007A0000201832F11C0983019F447E251E007C0CD
:1007B000993019F42093270103C09A3009F481E09D
:1007C0005093230140932201982F8F3F41F467FFFC
:1007D00002C0FD01968180E88093020108C0FD01FE
:1007E0008781882321F48681891708F4982F9093B4
:1007F00001014CC08091020187FF48C0492F5091F0
:1008000005015523D1F48C91813031F4CD010E9442
:100810009A0221E030E030C0FD018181282F33278A
:1008200082819927982F8827282B392B3093040110
:10083000209303011496462F4750852F840F8093F1
:100840000501582F507861E0209103013091040197
:10085000F8948D919D910C01F90160935700E895F2
:10086000112478942E5F3F4F425091F7309304014A
:1008700020930301252F33272F3F21F48EE180930E
:10088000000104C0222311F01092010110922401F2
:100890008091000184FF40C0809101018F3F09F4E5
:1008A0003BC0682F893008F068E0861B8093010107
:1008B0008091130198E8892780931301A4E1B1E0A6
:1008C0006623C1F0962FE0912201F09123018091DF
:1008D000020186FF07C0C895802D8D9331969150F7
:1008E000D1F704C081918D939150E1F7F0932301EA
:1008F000E09322017727C62F693040F484E191E02C
:100900000E94AF00CC5FCC3028F401C0CEE18FEF65
:1009100080930101C093000194E189B18C7031F49E
:100920009150D9F79093250190931F018091080170
:10093000882309F4A4CEF89481E180935700E895C8
:100940001DBA1092690015BC81E085BF15BEEE2767
:10095000FF270995FFCFFB01DC0102C005900D9236
:1009600041505040D8F70895F999FECFB2BDA1BDCE
:10097000F89A119600B40895F999FECFB2BDA1BDC1
:1009800000BC11960FB6F894FA9AF99A0FBE089522
:02099000FFCF97
:020992005AFF0A
:00000001FF
