:1000000060C094C079C078C077C076C075C074C035
:1000100073C072C071C070C06FC06EC06DC06CC064
:100020006BC06AC069C068C067C066C065C064C094
:1000300063C062C00600FF0901A101150026FF0090
:100040007508850195060900B202018502958309AC
:1000500000B20201850395260900B20201850495CC
:10006000040900B20201C009022200010100801946
:100070000904000001030000000921010100012220
:100080003300070581030800C812011001000000B9
:1000900008C016DF050001010203010A0330003029
:1000A00000300031000A0362006D006F006E000E28
:1000B0000341005600520065007400630004030908
:1000C000040011241FBECFEFD4E0DEBFCDBF11E08E
:1000D000A0E0B1E0E2EFF7E002C005900D92A2309F
:1000E000B107D9F711E0A2E0B1E001C01D92AF3332
:1000F000B107E1F7D4D17CC383CFA82FB92F80E01B
:1001000090E041E050EA60956F5F58F42D9138EF30
:1001100082279795879510F0842795273F5FC8F32E
:10012000F3CF0895EADF8D939D930895CF93CFB7D2
:10013000CF93C395189BE9F7189B09C0189B07C07C
:10014000189B05C0189B03C0189B01C0A3C0DF9378
:10015000C0912201DD27C75DDE4F189B02C0DF91F1
:10016000EBCF2F930F931F9303B12FEF00FB20F9D9
:100170004F933F9313B14FEF012700FB21F93BE071
:1001800031C04E7F012F13B1216028C0102F4D7F49
:100190002260000003B129C04B7F2460012F0000C2
:1001A00013B12BC013B1477F28602AC04F7E03B123
:1001B00020612CC04F7D13B120622FC04F7B03B153
:1001C000206432C0422703B149934FEF000010274B
:1001D00010FB20F913B11370C9F1297F91F20127A7
:1001E00000FB21F903B1237F89F2315058F1102728
:1001F00010FB22F913B1277E79F2012700FB23F9C6
:100200002F7C81F203B1102710FB24F92F7971F2B2
:1002100000C013B1012700FB25F92F7359F200C06C
:1002200003B1102710FB26F9223040F200C013B1B1
:10023000012700FB27F9243028F64F77206813B1F7
:100240000000F9CF11E01CBB002719C03B503195CD
:10025000C31BD04011E01CBB0881033CF9F00B34F8
:10026000E9F0209120011981110F1213EDCF4A817D
:10027000441F093641F10D3211F0013E29F7009378
:1002800027013F914F911F910F912F91DF91CCB397
:10029000C0FD4FCFCF91CFBFCF91189520912701AF
:1002A000222379F310912501112331F5343032F1F5
:1002B0003093250120932101109122013BE0311B55
:1002C000309322011BC0009125010130ACF40AE5F6
:1002D0004F7049F43091000134FD12C000930001C9
:1002E000C5E1D1E011C03AE50BC02795A8F4515003
:1002F000A9F4220F0000F9CF4AE503C042ED01C086
:10030000432FC4E1D0E032E014B11360289A14B94D
:1003100005B120E413E05F93012756E005B9279566
:1003200020F4515021F4220FF9CF012756E00000AC
:100330003B5A05B9D0F2279528F4515029F4220FE1
:100340000000F9CF012756E0279505B920F4515058
:1003500021F4220FF9CF012756E02991332305B963
:1003600021F60C7F10912601110FC651D04005B91E
:1003700011F01093200111E01CBB016014B11C7F2F
:10038000402F4C7F5F9100C000C005B914B945B93A
:1003900078CFFC013196808199278633910589F1C8
:1003A0008733910564F48330910501F18430910520
:1003B0001CF40197A1F00895449761F108958A33E0
:1003C000910579F18B3391051CF4C897F1F00895EC
:1003D0008E33910509F44FC0CF9741F1089589E814
:1003E00080930C01818180930D010895CBE0D1E0D1
:1003F00080E489831A821B8280E28C831D821E82A4
:10040000089581E080930A01089581E18093570067
:10041000E895089582819381909309018093080162
:1004200008950280F381E02D09950895A281B3819A
:100430002CE031E08181982F9F71807641F4482F24
:10044000F9018D9181934F5F4917D8F30895803258
:1004500049F4892F9927F90101971CF0B5D1019230
:10046000FBCF08958034D1F4892F9927AC01BD01C9
:10047000C901A1D10895A281B3819481258181818F
:100480008076803219F4092EA7D10895222329F00D
:100490008C918223892B8C9308959C930895CFEFA0
:1004A000D4E0DEBFCDBF10920A0120E08091690048
:1004B000826080936900E89A209AA89588EB9BE077
:1004C0000197F1F72150C9F720987894A895609189
:1004D0002501962F935097FD01C180912201A5E33C
:1004E000B1E0A81BB109809121018D3209F0A9C0AA
:1004F000983009F0F1C083EC809315018AE5809370
:100500000001109204016C91862F8076FD012281FA
:100510009181882309F1993029F4109207018FEF16
:1005200090E079C09130A9F420930B018BE091E029
:100530009093240180932301243039F4E091080141
:10054000F0910901808180930C01FD01868199273A
:1005500062C080E090E05FC04EE151E080931E01F8
:10056000992321F480931F0182E051C0953019F442
:10057000209326014CC09630E9F5382FFD01838188
:10058000813021F432E189E890E02BC0823021F4FF
:1005900032E287E690E025C08330C1F4222321F4C3
:1005A00034E08DEB90E01DC0213021F43EE08FEA75
:1005B00090E017C0223021F43AE085EA90E011C0C3
:1005C000233099F43AE08BE990E00BC0813221F4BA
:1005D00039E089E790E005C0823239F433E384E3FF
:1005E00090E0909324018093230180E480930401A0
:1005F000832F11C0983019F448E251E007C09930B8
:1006000019F42093280103C09A3009F481E0509333
:10061000240140932301982F8F3F41F467FF02C0CC
:10062000FD01968180E88093040108C0FD01878167
:10063000882321F48681891708F4982F909301016B
:100640004BC08091040187FF47C0492F509107019B
:100650005523C9F48C91813029F4CD019ADE21E033
:1006600030E030C0FD018181282F33278281992716
:10067000982F8827282B392B3093060120930501CA
:100680001496462F4750852F840F80930701582FCB
:10069000507861E02091050130910601F8948D9128
:1006A0009D910C01F90160935700E895112478940D
:1006B0002E5F3F4F425091F7309306012093050182
:1006C000252F33272F3F21F48EE18093000104C0B2
:1006D000222311F010920101109225018091000156
:1006E00084FF3FC0809101018F3F09F43AC0682F19
:1006F000893008F068E0861B809301018091150124
:1007000098E8892780931501A6E1B1E06623C1F03E
:10071000962FE0912301F09124018091040186FF3E
:1007200007C0C895802D8D9331969150D1F704C0A4
:1007300081918D939150E1F7F0932401E09323018F
:100740007727C62F693038F486E191E0EBDCCC5F87
:10075000CC3028F401C0CEE18FEF80930101C0932B
:10076000000194E183B1837031F49150D9F79093F3
:1007700026019093200180910A01882309F4A6CED6
:10078000809102019091030101979093030180935E
:100790000201892B09F09ACEF89481E180935700E9
:1007A000E8951DBA1092690081E085BF15BEEE275D
:1007B000FF270995FFCFFB01DC0102C005900D92D8
:1007C00041505040D8F70895F999FECFB2BDA1BD70
:1007D000F89A119600B40895F999FECFB2BDA1BD63
:1007E00000BC11960FB6F894FA9AF99A0FBE0895C4
:0207F000FFCF39
:0207F2005AFFAC
:00000001FF
