:100000002AC244C243C242C241C240C23FC23EC2EF
:100010003DC23CC23BC23AC239C2A2C337C236C299
:1000200035C234C233C232C231C230C22FC22EC234
:100030002DC22CC2000000000000000000000000E3
:10004000000B000000000000000D0C000000010289
:10005000000F0E0000050304110010000000060050
:1000600014121300000A08090716150000000C0BF3
:1000700018170000000D00191B1C1A00000F110EAC
:10008000101D0000001200001E1F0000001422209E
:1000900000210000000000000000080000310034D2
:1000A00037000000302C323536381B00002B332D42
:1000B0002A390000800087008F009800A100AA0064
:1000C000B500BF00CB00D700E400F10000010F0134
:1000D0001F013001420155016A017F019601AE0105
:1000E000C801E30100021E023E0260028502AB026B
:1000F000D402FF022C035D039003C60300043C04FA
:100100007D04C1040A055605A805FE055906BA0670
:1001100020078D078274546381D423F4C28443B4CE
:100120000242039424A3E301C3E4836444340585B9
:10013000C5E5F5FD7D3D1D0D000B17222D38424C08
:10014000545C63696E727577787775726E69635CFB
:10015000544C42382D22170B00F5E9DED3C8BEB44B
:10016000ACA49D97928E8B8988898B8E92979DA443
:10017000ACB4BEC8D3DEE9F5001326384957636D29
:1001800074787978746D655B5043372B1F140B02BC
:10019000FDF8F6F4F5F6F9FD0003070A0B0C0A0862
:1001A00003FEF5ECE1D5C9BDB1A59B938C8887888A
:1001B0008C939DA9B7C8DAED7878787878787878D4
:1001C00078787878787878787878787878787878AF
:1001D000787878787878787878787878787878789F
:1001E000787878787878787878787878787878788F
:1001F00078787878787878788888888888888888FF
:10020000888888888888888888888888888888886E
:10021000888888888888888888888888888888885E
:10022000888888888888888888888888888888884E
:10023000888888888888888888888888888888883E
:10024000888888888888888888888888888888882E
:100250008888888888880000F9000000F500F3008D
:10026000F100F200FC000000FA00F800F600F400D3
:1002700009097CA700000000000000000000000049
:10028000715131210000000000007A5A735361411E
:100290007757322200000000634378586444654574
:1002A00034A43323000000002020765666467454A0
:1002B00072523525000000006E4E62426848674762
:1002C00079593626000000002C4C6D4D6A4A755550
:1002D000372F3828000000002C3B6B4B69496F4FCB
:1002E000303D3929000000002E3A2D5F6C4CF8D8C3
:1002F00070502B3F000000000000E6C60000E5C57E
:100300005C6000000000000000000D0DA85E000011
:10031000272A0000000000003C3E00000000000012
:100320000000080800000000313100003434373785
:1003300000000000000030302C2C323235353636CB
:1003400038381B1B0000FB002B2B33332D2D2A2AA2
:10035000393900000000000000000000F700000034
:10036000000000000000000000000000000000008D
:10037000000000000000000000000000000000007D
:10038000000000000000000000000000000000006D
:10039000000000000000000000000000000000005D
:1003A000000000000000000000000000000000004D
:1003B000000000000000000000000000000000003D
:1003C000000000000000000000000000000000002D
:1003D000000000000000000000000000000000001D
:1003E000000000000000000000000000000000000D
:1003F00000000000000000000000000000000000FD
:1004000000000000000000000000000000000000EC
:1004100000000000000000000000000000000000DC
:1004200000000000000000000000000000000000CC
:1004300000000000000000000000000000000000BC
:1004400000000000000000000000000000000000AC
:1004500000000000000011241FBECFEFD4E0DEBF7B
:10046000CDBF11E0A0E0B1E0E4E6FDE002C0059000
:100470000D92A230B107D9F711E0A2E0B1E001C0BE
:100480001D92A738B107E1F74BD06AC4B9CD80936C
:10049000020181E080930301089578D280910201E6
:1004A00049E855E0882321F182EA92E090936301C4
:1004B00080936201109261011092600121E020930B
:1004C0005F0150935E0140935D0110925C011092B8
:1004D0005B0120935A0180E594E09093680180933A
:1004E00067011092660110926501209364010895DE
:1004F00084EF92E090936301809362011092610116
:100500001092600181E080935F0150935E014093FF
:100510005D0110925C0110925B0180935A01089575
:100520003AD368D260D18FEF90E0EFD07894D5D2F3
:10053000B4DF10920301FFD032D2809103018823EF
:10054000D1F3F5CF52D1882381F46BD3882369F09E
:100550008B3111F4C7D009C0813F31F410920201F0
:1005600081E08093030101C043D180916E0190E04E
:10057000FC01EE0FFF1FEE0FFF1FE80FF91FE65AF9
:10058000FE4F84E190E09283818384E0808308952C
:10059000E0910401E80FF0E0EE0FFF1FEC54FF4F75
:1005A00024913196E4919E2F80E0820F911D64E0AA
:1005B0004DD20895E0910401E80FF0E0EE0FFF1F27
:1005C000EC54FF4F84913196E4917E2F60E0680FE8
:1005D000711D809105014FE325D2809105018F5F48
:1005E00083708093050108950F931F930091060176
:1005F00006D3182F80916E0190E0FC01EE0FFF1FD3
:10060000EE0FFF1FE80FF91FE65AFE4F84E190E05E
:100610009283818384E080833FD2112309F459C0FF
:10062000103E21F480910601816005C0113E31F435
:10063000809106018260809306014BC0103F21F437
:10064000809106018460F7CF10920601802F00FD93
:10065000106881FD106882FF11C0E12FF0E0EF7794
:10066000F070EC5CFF4F8491811192DF809100016A
:10067000811779F58FEF809300012BC0163711F4A5
:1006800031D016C0153019F481E001DF11C0153FDB
:1006900021F4809104018F5F05C0123F31F48091F5
:1006A000040181508093040103C0193209F415D26A
:1006B00080910001811769F01093000117FD09C0B6
:1006C000E12FF0E0EF77F070EC5CFF4F8491811147
:1006D00071DF1F910F910895E0910701F0910801DA
:1006E000099508951092680010926B0010926C00AA
:1006F00010926D0010926F00F894E0E0FCE0F0932F
:100700000801E09307010995089510925501109290
:10071000540123E02093800029E120938100292FB8
:10072000332727FD3A95209389008093880081E044
:1007300080936F000895809153018823E1F38091A5
:10074000530181508093530180915301089520916A
:10075000540130915501C90108958093090108950C
:100760001F920F920FB60F9211242F933F934F9326
:100770005F936F937F938F939F93AF93BF93EF9309
:10078000FF938091090187BD80915401909155019B
:10079000019690935501809354018091540190915A
:1007A0005501892B49F48091510190915201019694
:1007B0009093520180935101809153018F5F8093F8
:1007C0005301C4D2FF91EF91BF91AF919F918F914F
:1007D0007F916F915F914F913F912F910F900FBE3D
:1007E0000F901F9018955F9A089580915701089572
:1007F000982FE82FE154EA3120F0E82FE156EA3152
:1008000010F4F0E007C080538A3088F49651E92F45
:10081000F0E09A5EEC5EFE4FE49190935701E09316
:100820005601E770E09358011092590108959032F3
:1008300061F4E8E1F1E0E49190935701E09356010F
:10084000E770E0935801109259010895882311F040
:1008500020E201C024E680916E0190E0FC01EE0FE1
:10086000FF1FEE0FFF1FE80FF91FE65AFE4F822F02
:1008700090E025E0880F991F2A95E1F79283818304
:1008800084E080830895882329F080E060E872E0A6
:100890004FEF04C080E060E070E040E0C3D0089516
:1008A0001F9390915701992309F46EC080915901CB
:1008B000813099F1813020F0823009F061C043C06D
:1008C00010915601812F880F809356018091580115
:1008D000815080935801903221F05F98579A81E0BF
:1008E000D2DF81E08093590117FD02C024E601C0E8
:1008F00020E280916E0190E0FC01EE0FFF1FEE0FF1
:10090000FF1FE80FF91FE65AFE4F822F90E065E0C7
:10091000880F991F6A95E1F72BC057985F9A80E07E
:10092000B2DF82E08093590180916E0190E0FC017A
:10093000EE0FFF1FEE0FFF1FE80FF91FE65AFE4FE5
:1009400080E094E015C0809158018823B1F483E0E1
:100950008093590180916E0190E0FC01EE0FFF1F22
:10096000EE0FFF1FE80FF91FE65AFE4F80E89CE0EC
:100970009283818384E0808307C01092590104C070
:1009800010925901109257011F91089510925A0127
:1009900010925F01109264011092690108951F93F3
:1009A000CF93DF9310926E01CAE5D1E011E01AC037
:1009B0008881882389F082FF0CC089819A81009701
:1009C00019F001979A83898389819A81892B21F46F
:1009D0001883EB81FC81099580916E018F5F809374
:1009E0006E01259680916E01843010F3DF91CF91D6
:1009F0001F910895569A83E884BD81E085BD80E803
:100A000087BD80E090E0FC01E958FE4F1182108222
:100A1000FC01E159FE4F1182108202968830910547
:100A200091F70895843088F4A82FB0E0FD01EE0F0F
:100A3000FF1FE958FE4F71836083FD01ED57FE4FA4
:100A40004083A158BE4F81E08C9308959C01809112
:100A50007701909178018217930711F460937F01D9
:100A60008091790190917A018217930711F4609334
:100A7000800180917B0190917C018217930711F492
:100A80006093810180917D0190917E01821793078F
:100A900011F460938201089580910A01815080933E
:100AA0000A0190E08F719070892BB1F4E3E8F1E0D6
:100AB000AFE7B1E08081882349F09C91913011F437
:100AC000883221F0891B87FD80E080833196119662
:100AD00081E0E738F80771F70895CF93DF93C7E710
:100AE000D1E0AFE6B1E080E090E021E01992199208
:100AF0001D921D92FC01ED57FE4F1082FC01E15842
:100B0000FE4F208301968430910581F7DF91CF91CC
:100B10000895CF93DF93C3E8D1E0AFE6B1E047E7B4
:100B200051E070E06881FA01208131818D919C91C2
:100B30001197280F391F11963C932E936E3110F4A4
:100B40008EE101C0862FE32FEF73EE51E80FF0E046
:100B5000E85CFE4FE4912E2F332727FD3095862F3A
:100B600090E0FC012E9FC0012F9F900D3E9F900DA5
:100B70001124892F990F990B780F219612964E5FA9
:100B80005F4FF1E0C738DF0769F6872F8058E5DD52
:100B9000DF91CF91089510920C0110920D018BE01E
:100BA00080930B011092300110922F010895E1E320
:100BB000F1E0119281E0E134F807D9F70895982F18
:100BC000977021E030E002C0220F331F9A95E2F7C0
:100BD000869586958695E1E3F1E0E80FF11D808129
:100BE00082230895E0910D0180910C01E81711F422
:100BF00080E00895F0E0E25FFE4F808108959091DB
:100C00000D0180910C01981711F480E00895E92FEF
:100C1000F0E0E25FFE4F80819F5F9F7190930D0136
:100C200008955091300190910D0180910C01981719
:100C300009F45AC0E92FF0E0E25FFE4F40819F5F68
:100C40009F7190930D01442309F44FC0403E11F46D
:100C5000516007C0413E11F4526003C0403F21F48F
:100C600054605093300140C010923001423111F075
:100C7000493549F480912F0152FF02C0817001C0B3
:100C8000816080932F01342F369536953695242F29
:100C9000277081E090E0982F01C0990F2A95EAF71C
:100CA000652F70E0E32FF0E09B012470307052FF5D
:100CB00006C0EF5CFE4F90958081982304C0EF5CE6
:100CC000FE4F8081982B908360FD4068232B61F458
:100CD000242F220F80912F0180FD2F5FE22FF0E063
:100CE000EA5AFD4F449101C040E0842F089580915D
:100CF0000B0130990EC08350883038F580912E0159
:100D0000869580932E01319B20C0806880932E01B0
:100D10000895815080930B018823B9F480912E01AE
:100D200090910C01882371F0E92FF0E0E25FFE4F13
:100D30008083E92FEF5FEF7180910D01E81711F0CB
:100D4000E0930C018BE080930B01089596B19170B4
:100D500080910101891719F090930101C8DF08956E
:040D6000F894FFCF35
:020D6400FF018D
:00000001FF
