:1000000056C06EC06DC06CC06BC0A8C069C068C06F
:1000100067C066C065C064C063C062C061C060C0C4
:100020005FC05EC05DC0010203040500000006075A
:1000300008090A0000000B0C0000000000000D0E73
:10004000000000000000000000000000000002208E
:1000500080003DBD0940C90941C80942CB0943CAD6
:100060000944CD0945CC0946CF0947CE0948C10905
:1000700049C0094AC3094BC20020A00021A1AA5AC5
:100080008F1216D1124E32124F221250C21251D27A
:100090001252E21253F21254821255921256A212C6
:1000A00057B21258421259521214F11215E111248A
:1000B0001FBECFEDCDBF10E0A0E6B0E0E0E2F4E07F
:1000C00002C005900D92A236B107D9F710E0A2E662
:1000D000B0E001C01D92A237B107E1F702D09EC186
:1000E0008FCF82E08BBB83E08ABB8FEF88BB17BAD0
:1000F00083E882BB11BA80E888B9C9D087EA91E663
:1001000005D0789480E285BF8895FDCF1092660077
:100110001092650023E02FBD29E12EBD292F332742
:1001200027FD3A952BBD8ABD80E889BF0895D998EF
:100130000895D99A0895809165009091660001967E
:1001400090936600809365008091650090916600B1
:1001500083FF02C0ECDF0895ECDF08951F920F9239
:100160000FB60F9211242F933F934F935F936F938A
:100170007F938F939F93AF93BF93EF93FF93C4D0DD
:10018000FF91EF91BF91AF919F918F917F916F916F
:100190005F914F913F912F910F900FBE0F901F9045
:1001A0001895982F81E002C0880F91509923E1F7AC
:1001B0000895D89A00000000D898000000000000C0
:1001C00000008150B1F70895D89800000000D89839
:1001D0000000000000000000000000008150A1F7B6
:1001E00008951F93182F8EE0E4DF8EE0EDDF1123DA
:1001F00021F08EE0E9DF8EE0E7DF1F9108950F9395
:100200001F93082F10E0802F8170EBDF06951F5F92
:100210001830C9F71F910F91089580E7CADF88E36E
:10022000D3DF08958EE0C5DF80E7CEDF80E7CCDF47
:100230000895CF93DF93F1DFCCE6D0E08991DFDF43
:1002400080E0C237D807D1F7EDDFDF91CF91089575
:100250008FEF809363001092640010926200089503
:10026000582F309164004091630021E090E0822F8C
:10027000862319F0492F450F3F5F985F903411F0A6
:10028000220FF5CF30936400409363000895E0DFC0
:1002900008950F931F93082F10E003C08AEFA4D096
:1002A0001F5F1017D8F31F910F9108950F931F939D
:1002B000082F10E007C03BDF89E1EBDF3ADF89E17F
:1002C000E8DF1F5F1017B8F31F910F910895809119
:1002D0006000882311F08AE001C082E0E7DF089522
:1002E000482F8B3141F48091600091E08927809301
:1002F0006000EDDF08958CE690E06091600034D0FE
:1003000016DF97DF16DF08950F931F9300916200A9
:10031000053048F080916400813019F480916300C9
:10032000DFDF96DF17C0802F8E5F3BDF81BB82E06F
:100330005BD0809162008F5F8093620016B310954E
:100340001F7119F0802F612F8BDFE02FF0E0E9594A
:10035000FF4F10831F910F910895EEE4F0E0E80F36
:10036000F11DE4918E2F0895DF92EF92FF920F938B
:100370001F937C01862FE6E2F0E0E40FF11DD4909C
:1003800090E060E370E038D0082F0F5FE6DFF70100
:100390008083102F1F5F802FE0DFF7018183812F83
:1003A000DCDFF70182831F5F8D2D90E063E070E05A
:1003B00023D0180F012F0F5F812FCFDFF701838329
:1003C000802FCBDFF7018483802F8F5FC6DFF7019B
:1003D00085831F910F91FF90EF90DF9008950000AB
:1003E0000000000000000895000000000000000070
:1003F00000008150C9F708955527002480FF02C0EE
:10040000060E571F660F771F6115710521F096952F
:100410008795009799F7952F802D0895F894FFCF31
:020420000100D9
:00000001FF
