:1000000012C02AC029C028C027C0D8C025C0D6C267
:10001000B2C222C021C020C01FC01EC01DC01CC053
:100020001BC01AC019C011241FBECFEDCDBF10E0F8
:10003000A0E6B0E0E6E6F6E002C005900D92A63735
:10004000B107D9F710E0A6E7B0E001C01D92AB3AC6
:10005000B107E1F702D005C3D3CF9FEF9BBB1ABA1C
:1000600018BA8CE087BB92BB11BA89E791E108D03E
:1000700080E895E2E6D0789480E485BF8895FDCF4E
:1000800021E02093830029E02093820010928100D8
:100090001092800010927B002DE220937A002DE3D5
:1000A00020937900109286001092850020E137E2BB
:1000B00030937E0020937D0023E02FBD29E12EBDEB
:1000C000292F332727FD3A952BBD8ABD80E889BFAC
:1000D0000895C29A81E080938400089580918400FD
:1000E000882319F010928400C2980895909182009C
:1000F00080917B009817B9F49091810080917A00EB
:10010000981789F49091800080917900981759F49C
:1001100080918300882339F020E030E0863029F098
:1001200021E030E002C020E030E0C9010895909164
:100130007F00992331F480917700882311F4C398CC
:1001400001C0C39A892F8F5F80937F008436A8F106
:1001500010927F00809176008111BFD1809177004D
:100160008F5F809377008A3010F010927700809133
:1001700080008F5F809380008C33F8F010928000B5
:1001800010927700809181008F5F809381008C3383
:10019000A0F010928100809182008F5F8093820096
:1001A000883158F010928200809183008F5F809395
:1001B0008300873010F01092830008951F920F92F1
:1001C0000FB60F9211242F933F934F935F936F932A
:1001D0007F938F939F93AF93BF93EF93FF93809100
:1001E000850090918600019690938600809385000B
:1001F000209185003091860080917D0090917E0055
:100200002817390728F0109286001092850007C041
:100210008EDF6CDF882311F05CDF01C05FDF82D1ED
:10022000FF91EF91BF91AF919F918F917F916F91CE
:100230005F914F913F912F910F900FBE0F901F90A4
:10024000189512B885E089B98EE083B988EB8AB930
:1002500082E08BB910929700109295001092AA003C
:1002600008955D998CB908958091A60008959091A4
:100270009600E7E8F0E0E90FF11D80839F5F90931F
:1002800096000895805DF3DF08951F93182F6AE0AC
:10029000DCD1F8DF812F6AE0D8D1892FF3DF1F91FD
:1002A00008950F931F9390E063E070E0BCD18C0140
:1002B000005A1F4FF8018081DADFF8018181D7DF12
:1002C0000F5F1F4FF8018181D2DF1F910F910895B9
:1002D0008DE0CDDF8AE0CBDF08959091A700E92F74
:1002E000F0E0E856FF4F8081292F9F5F8032B9F3FD
:1002F0002093A70008959091A700E92FF0E0E85619
:10030000FF4F80818D3019F09F5F9093A700089573
:10031000F2DF805308951F93FBDF182F8A3010F00F
:100320001FEF11C0F5DF282F8A3040F4812F90E0B5
:100330006AE070E078D1122F180F05C08091A700F5
:1003400081508093A700812F1F9108951F93C5DFCF
:10035000E2DF182F87FD14C0CEDF8A3389F41093B3
:100360008200D9DF87FD0CC080938100109280004D
:10037000C2DF8A3329F4CFDF87FD02C0809380007B
:100380001F9108951F93A9DFC6DF182F87FD14C0A2
:10039000B2DF8A3389F410937B00BDDF87FD0CC088
:1003A00080937A0010927900A6DF8A3329F4B3DFB4
:1003B00087FD02C0809379001F9108952091A800C5
:1003C0003091A90040E050E02817390718F0281BA9
:1003D000390B5F5F4F5F4A30B9F73093A900209324
:1003E000A800852F90E00895E9DF4CDF089575DFC0
:1003F0008FDF87FD20C0992787FD90959093A900F6
:100400008093A80085DF282F8091A8009091A900F3
:1004100027FD0DC0332727FD30956AE070E003D13A
:10042000280F391F3093A9002093A800EBCF909399
:100430007E0080937D000895909195008091AA00A0
:10044000981758F45D9B09C0E92FF0E0E957FF4F7A
:1004500080818CB99F5F90939500089510929500CC
:10046000809196008093AA00E7DF0895109296008D
:1004700080917D0090917E009093A9008093A800C8
:1004800080E197E2B1DF88EE93E0AEDF84E690E0B2
:10049000ABDF8AE090E0A8DF8091A800F3DE18DFF0
:1004A000DDDF08951092960013DF8EE3E0DED6DFE5
:1004B00008951092960080E2DADE80917B00E5DEFE
:1004C0008AE3D5DE80917A00E0DE8AE3D0DE809197
:1004D0007900DBDEFDDEC2DF089510929600809188
:1004E0008300DFDE80E2C3DE80918200CEDE8AE31D
:1004F000BEDE80918100C9DE8AE3B9DE8091800092
:10050000C4DEE6DEABDF08951F93E7DE01DF182FC0
:10051000F2DE8A3329F417301CF410938300DDDFF8
:100520001F910895A1DE8D3029F51092A60010923A
:10053000A700E1DE833711F409DF10C0813619F41A
:1005400021DFB7DF15C08A3619F451DF8FDF10C005
:10055000873711F4D9DF0CC0803711F4BEDF08C033
:10056000843731F48091760091E08927809376007A
:100570001092970008951F920F920FB60F921124B8
:100580002F933F934F935F936F937F938F939F939B
:10059000AF93BF93EF93FF934FDFFF91EF91BF9125
:1005A000AF919F918F917F916F915F914F913F910B
:1005B0002F910F900FBE0F901F9018951F920F92C2
:1005C0000FB60F9211242F933F934F935F936F9326
:1005D0007F938F939F93AF93BF93EF93FF935F9B13
:1005E00011C08CB1E0919700F0E0E856FF4F808396
:1005F0008093A60036DE809197008D3018F48F5FCF
:1006000080939700FF91EF91BF91AF919F918F9150
:100610007F916F915F914F913F912F910F900FBEFE
:100620000F901F9018955527002480FF02C0060EDA
:10063000571F660F771F6115710521F096958795F5
:10064000009799F7952F802D0895991B79E004C0A4
:10065000991F961708F0961B881F7A95C9F7809501
:060660000895F894FFCF9D
:1006660053756E4D6F6E547565576564546875465F
:060676007269536174007B
:00000001FF
