:100000003BC03AC09DC238C037C036C035C04FC1B2
:1000100033C00C035200530032003300320004039B
:10002000090409024300020100000A09040000015A
:100030000202010005240010010424020205240626
:100040000001052401030107058303080064090476
:100050000100020A00000007050102080000070570
:1000600081020800001201100102000008C016E120
:10007000050001010203010011241FBECFEDCDBF19
:10008000A0E6B0E0E0EDF7E005900D92A236E1F7D2
:100090001D92A43CE9F78EC0FC018381813021F4DC
:1000A00025E630E082E110C0823021F422E230E027
:1000B00083E40AC08281882321F42EE130E084E0C9
:1000C00003C022E130E08CE030939D0020939C003F
:1000D00099270895CCD08EE083B982E08BB999241A
:1000E000892CB92CA92C88E98AB90895E3E6F0E0B7
:1000F00027E090E0E199FECF892F9F5F8EBBE09AC9
:100100008DB381932150B1F70895FC0180818076F1
:10011000803299F48181813251F4E8DF83E690E006
:1001200090939D0080939C0087E090E0089580323A
:1001300021F444248FEF90E0089580E090E008954A
:10014000BC014420F9F48BE480938E0047E083E601
:1001500090E084D030E027E0E3E6F0E0E199FECFE4
:100160001CBA832F3F5F8EBBE09A8DB390818917B5
:1001700029F09DBBF894E29A7894E19A3196215047
:1001800069F7A8DF81E090E00895DC018D91EB2D07
:10019000FF27EE58FF4F8083B3948B2D8F70B82EBE
:1001A0006150A1F78A198F70883018F08FEF809313
:1001B0009E000895CFEDD0E0DEBFCDBF82B3816257
:1001C00082BB87EE81BB8FE087BB21E0522E8ED1B0
:1001D0008DDF80DF7894ADD0BA14B9F05D9B15C087
:1001E000EA2DFF27EE58FF4FA39480818CB99A2DFA
:1001F0009F70A92E80919E0087FF07C08B2D891BC1
:100200008F70883010F410929E00981411F0C398EB
:1002100001C0C39A80918D0084FFDDCFC92DC8191C
:10022000C77019F45520B9F20EC0C83008F0C8E004
:1002300093E6E92E90E0F92E1C2F2FD0F701819341
:100240007F011150D1F76C2F83E690E06AD05524DE
:10025000C83009F0C0CF81E0582EBDCF141634F459
:10026000DC01FB0181918D934150E1F70895E3E6B4
:10027000F0E080819181628166959795879540EB4A
:1002800051E76BE02EEF3FEF2F5F3F4F481B590BBD
:100290006109D0F732B929B90895982DEAE6F0E05E
:1002A000E80D808193959770892E99270895579826
:1002B00023BB78942CB12FB6E4BBF5BBEAE6F0E0A3
:1002C000E90D2083292D239527708212922EF5B3F4
:1002D000E4B323B32FBEF894579A18951F93CF9386
:1002E000DF93DC01162FEA01888184FF05C0898134
:1002F00098E88927898302C08AE58883AE014E5F2A
:100300005F4FFA01212F8D91819321501216DCF35A
:10031000612FCA0111D11C5F1883DF91CF911F910A
:1003200008954DE850E0DADF089548EB50E0D6DF5D
:100330000895CF93DF9360919E00635067FD86C060
:1003400080919B00CEEAD0E0C81BD10980919A0031
:10035000803118F4CE0119DF73C08D3209F060C00E
:10036000683009F06DC033EC309382008AE58093E9
:100370006000109262008881807619F0CE01C5DE9F
:100380003BC04BE850E02A8180938B0099819923F0
:1003900021F480938C0082E02BC0953019F42093D7
:1003A0009F0026C0963081F4982F8B81813021F0F8
:1003B000823011F0833019F4CE016EDE982F80E484
:1003C00080936200892F18C0983019F441EA50E0F8
:1003D00007C0993019F42093A1000AC09A3011F493
:1003E00081E006C09B3021F430938E003093B90039
:1003F00050939D0040939C00982F8F3F39F4888143
:1004000087FD9E8180E88093620007C08F818823EA
:1004100021F48E81891708F4982F9093610010C001
:100420008091620087FF0CC0CE018ADE8F3F21F4ED
:100430008EE18093600004C0882311F01092610067
:1004400080919E00181614F410929E008091600016
:1004500084FF3FC0809161008F3F09F43AC0682F4C
:10046000893008F068E0861B8093610080918200EB
:1004700098E8892780938200A3E8B0E06623C1F062
:10048000962FE0919C00F0919D008091620086FF84
:1004900007C0C895802D8D9331969150D1F704C037
:1004A00081918D939150E1F7F0939D00E0939C0032
:1004B0007727C62F693038F483E890E03DD0CC5FD1
:1004C000CC3028F401C0CEE18FEF80936100C0935F
:1004D000600094E180B3887131F49150D9F7909322
:1004E0009F0090939900DF91CF91089585B78C601C
:1004F00085BF8BB780688BBF83EC80938E00809321
:10050000B9008AE580938D008093B8000895A82FE4
:10051000B92F80E090E041E050EA609530E009C0FA
:100520002D9182279795879510F084279527305E27
:10053000C8F36F5FA8F30895EADF8D939D93089544
:10054000CF93CFB7CF93C395849BE9F7849B09C022
:10055000849B07C0849B05C0849B03C0849B01C00F
:10056000A6C0DF93C0919B00DD27CE55DF4F849B53
:1005700002C0DF91EBCF2F930F931F9300B32FEFA8
:1005800004FB20F94F933F9310B34FEF012704FB77
:1005900021F93BE031C04E7F012F10B3216028C00C
:1005A000102F4D7F2260000000B329C04B7F2460D4
:1005B000012F000010B32BC010B3477F28602AC062
:1005C0004F7E00B320612CC04F7D10B320622FC03E
:1005D0004F7B00B3206432C0422700B349934FEFF2
:1005E0000000102714FB20F910B31871C9F1297FFE
:1005F00091F2012704FB21F900B3237F89F23150E6
:1006000058F1102714FB22F910B3277E79F2012745
:1006100004FB23F92F7C81F200B3102714FB24F98B
:100620002F7971F200C010B3012704FB25F92F7355
:1006300059F200C000B3102714FB26F9223040F213
:1006400000C010B3012704FB27F9243028F64F77A8
:10065000206810B30000F9CF10E81ABF00271CC0B3
:100660003B503195C31BD04010E81ABF0881033CB2
:1006700011F10B3401F1209199001981110F12131E
:10068000EDCF4A81441F093659F10D3211F0013E78
:1006900029F74F7009F0042F0093A0003F914F916C
:1006A0001F910F912F91DF91CAB7C7FD4CCFCF910A
:1006B000CFBFCF9118952091A000222379F31091FC
:1006C0009E001123C1F53430C2F130939E00209377
:1006D0009A0010919B003BE0311B30939B002DC092
:1006E00000919E0001303CF50AE54F7049F43091CD
:1006F000600034FD24C000936000C2E8D0E023C055
:10070000433049F030918D0034FD19C000938D00C5
:10071000CEE8D0E018C03091B80034FD10C000938E
:10072000B800C9EBD0E00FC02795A8F45150A9F448
:10073000220F0000F9CF4AE503C042ED01C0432F6C
:10074000C4E1D0E032E011B31861949A11BB02B356
:1007500020E418E15F93012756E002BB279520F4BF
:10076000515021F4220FF9CF012756E000003B5AE7
:1007700002BBD0F2279528F4515029F4220F000033
:10078000F9CF012756E0279502BB20F4515021F400
:10079000220FF9CF012756E02991332302BB21F61E
:1007A000077E10919F00110FC651D04002BB11F07F
:1007B0001093990010E81ABF006111B3177E402F03
:1007C000477E5F9100C000C002BB11BB42BB66CF39
:0207D0005AFFCE
:00000001FF
