:100000003BC03AC0B4C238C037C036C035C066C184
:1000100033C00C035200530032003300320004039B
:10002000090409024300020100000A09040000015A
:100030000202010005240010010424020205240626
:100040000001052401030107058303080064090476
:100050000100020A00000007050102080000070570
:1000600081020800001201100102000008C016E120
:10007000050001010203010011241FBECFEDCDBF19
:10008000A0E6B0E0ECECF7E005900D92AC36E1F7BD
:100090001D92AE3CE9F792C0FC018381813021F4CE
:1000A00025E630E082E110C0823021F422E230E027
:1000B00083E40AC08281882321F42EE130E084E0C9
:1000C00003C022E130E08CE03093A7002093A6002B
:1000D00099270895E3D08EE083B982E08BB9992403
:1000E000892CB92CA92C88E98AB90895EDE6F0E0AD
:1000F00027E090E0E199FECF892F9F5F8EBBE09AC9
:100100008DB381932150B1F70895FC0180818076F1
:100110008032B9F48181813251F4E8DF8DE690E0DC
:100120009093A7008093A60087E090E00895803226
:1001300021F444248FEF90E00895823211F482E09C
:10014000682E80E090E00895BC014420F9F48BE42F
:100150008093980047E08DE690E097D030E027E06C
:10016000EDE6F0E0E199FECF1CBA832F3F5F8EBB36
:10017000E09A8DB39081891729F09DBBF894E29A9B
:100180007894E19A3196215069F7A4DF81E090E0FC
:100190000895DC018D91EB2DFF27E458FF4F8083FC
:1001A000B3948B2D8F70B82E6150A1F78A198F7080
:1001B000883018F08FEF8093A8000895CFEDD0E03D
:1001C000DEBFCDBF82B3816282BB87EE81BB8FE091
:1001D00087BB31E0532E6624A0D188DF7BDF789483
:1001E000BFD0BA14B9F05D9B15C0EA2DFF27E458C3
:1001F000FF4FA39480818CB99A2D9F70A92E809176
:10020000A80087FF07C08B2D891B8F70883010F4E2
:100210001092A800981411F0C39801C0C39A80915D
:10022000970084FF1EC0C92DC819C77019F4552046
:10023000C1F00EC0C83008F0C8E02DE6E22E20E084
:10024000F22E1C2F41D0F70181937F011150D1F77D
:100250006C2F8DE690E07CD05524C83011F491E0ED
:10026000592E662009F4BCCF8091C20084FFB8CF1C
:10027000F2E06F1621F468E080E690E003C062E0EF
:1002800088E690E069D06A94ABCF141634F4DC01B0
:10029000FB0181918D934150E1F70895EDE6F0E087
:1002A00080819181628166959795879540E452E4BB
:1002B0006FE02EEF3FEF2F5F3F4F481B590B610957
:1002C000D0F732B929B90895982DE4E7F0E0E80DA8
:1002D000808193959770892E99270895579823BB0D
:1002E00078942CB12FB6E4BBF5BBE4E7F0E0E90D60
:1002F0002083292D239527708212922EF5B3E4B323
:1003000023B32FBEF894579A18951F93CF93DF937A
:10031000DC01162FEA01888184FF05C0898198E8F5
:100320008927898302C08AE58883AE014E5F5F4FCB
:10033000FA01212F8D91819321501216DCF3612F48
:10034000CA0111D11C5F1883DF91CF911F910895CD
:1003500047E950E0DADF089542EC50E0D6DF089537
:10036000CF93DF936091A800635067FD86C08091B2
:10037000A500C8EBD0E0C81BD1098091A400803152
:1003800018F4CE0106DF73C08D3209F060C068300A
:1003900009F06DC033EC30938C008AE580936A00DD
:1003A00010926C008881807619F0CE01AEDE3BC0E1
:1003B00045E950E02A81809395009981992321F4A1
:1003C0008093960082E02BC0953019F42093A90009
:1003D00026C0963081F4982F8B81813021F08230B5
:1003E00011F0833019F4CE0157DE982F80E480930A
:1003F0006C00892F18C0983019F44BEA50E007C000
:10040000993019F42093AB000AC09A3011F481E0BE
:1004100006C09B3021F4309398003093C300509372
:10042000A7004093A600982F8F3F39F4888187FD5D
:100430009E8180E880936C0007C08F81882321F41F
:100440008E81891708F4982F90936B0010C08091CB
:100450006C0087FF0CC0CE0177DE8F3F21F48EE168
:1004600080936A0004C0882311F010926B00809181
:10047000A800181614F41092A80080916A0084FF56
:100480003FC080916B008F3F09F43AC0682F8930DC
:1004900008F068E0861B80936B0080918C0098E8E0
:1004A000892780938C00ADE8B0E06623C1F0962FD9
:1004B000E091A600F091A70080916C0086FF07C034
:1004C000C895802D8D9331969150D1F704C08191BC
:1004D0008D939150E1F7F093A700E093A600772762
:1004E000C62F693038F48DE890E03DD0CC5FCC3039
:1004F00028F401C0CEE18FEF80936B00C0936A00B7
:1005000094E180B3887131F49150D9F79093A900A8
:100510009093A300DF91CF91089585B78C6085BF3C
:100520008BB780688BBF83EC809398008093C30067
:100530008AE5809397008093C2000895A82FB92F71
:1005400080E090E041E050EA609530E009C02D91F4
:1005500082279795879510F084279527305EC8F3FA
:100560006F5FA8F30895EADF8D939D930895CF936D
:10057000CFB7CF93DF93C395849BE9F7849B0BC0E0
:10058000849B09C0849B07C0849B05C0849B03C0D7
:10059000849B01C08EC06F93C091A500DD27C45518
:1005A000DF4F2F9365E5849B03C02F916F91E6CFBA
:1005B0000F931F934F9320E040E15F9300B30871C6
:1005C00004FB27F93F9350E03BE039C018714064C9
:1005D0002F77012F5F5F1EC0406810B318712F770F
:1005E00052501FC0406400B32F770871D1F15F5F94
:1005F00000C023C0406210B32F77187191F15F5F84
:1006000000C025C008711027515012F45D5F000032
:10061000115027952C3F10B3C8F6187101270150CF
:1006200027952C3FC8F64227499300B3087110273D
:100630004F73115027952C3FA8F64695469510B359
:10064000187179F00127015027952C3F98F66B5AC5
:1006500060F3315000B3B0F600C010E81ABF0027B5
:100660001CC03B503195C31BD04010E81ABF088115
:10067000033C21F10B3411F12091A3001981110FDA
:100680001213EDCF4A81441F093669F10D3211F082
:10069000013E29F74F7009F0042F0093AA003F9103
:1006A0005F914F911F910F912F916F91CAB7C7FD25
:1006B00062CFDF91CF91CFBFCF9118952091AA0043
:1006C000222369F31091A8001123E9F53430EAF1EF
:1006D0003093A8002093A4001091A5003BE0311BAB
:1006E0003093A50032C00091A800013064F50AE5FE
:1006F0004F7049F430916A0034FD28C000936A00BD
:10070000CCE8D0E027C0433049F03091970034FD69
:100710001DC000939700C8E9D0E01CC03091C20012
:1007200034FD14C00093C200C3ECD0E013C0052711
:1007300010E000C0000002BB1AC0052710E0221F15
:100740001DC010E021C04AE502C032ED432FC4E1D4
:10075000D0E032E011B31861949A02B311BB58E1B2
:1007600020E865E320FF052702BB279517951C3F6E
:10077000F0F66695B8F7B1F720FF052702BB27957D
:1007800017951C3FD0F62795179517FF05270000F2
:100790001C3F02BBB0F629913A9519F7077E1091DC
:1007A000A900110FC651D04002BB11F01093A30055
:1007B00010E81ABF006111B3177E402F477E54E046
:0C07C0005A95F1F702BB11BB42BB69CF98
:0C07CC00A12000000000020003005AFF02
:00000001FF
