:1018000049C077C047C0040309040E0341005600D5
:1018100052006500740063000A0362006D006F00EF
:101820006E000A0330003000300031001201100158
:1018300000000008C016DF050001010203010902D3
:1018400022000101008019090400000103000000CA
:10185000092101010001223300070581030800C8A6
:101860000600FF0901A101150026FF00750885018A
:1018700095060900B20201850295830900B20201B2
:10188000850395260900B20201850495040900B27A
:101890000201C00011241FBECFEFD4E0CDBFDEBFD8
:1018A00014E0A0E8B4E0E6EDFFE105900D92A23867
:1018B000B107D9F714E01D92AD3BB107E1F7B3C111
:1018C000A82FB92F80E090E041E050EA60956F5F6B
:1018D00058F42D9138EF82279795879510F084273B
:1018E00095273F5FC8F3F3CF0895EADF8D939D936B
:1018F0000895CF93CFB7CF93DF93C395189BE9F7A4
:10190000189B0BC0189B09C0189B07C0189B05C0EB
:10191000189B03C0189B01C08BC06F93C091A0049B
:10192000DD27C955DB4F2F9365E5189B03C02F9129
:101930006F91E6CF0F931F934F9320E040E15F93A9
:1019400003B1037000FB27F93F9350E03BE039C03F
:10195000137040642F77012F53501EC0406813B19D
:1019600013702F7753501FC0406403B12F7703705B
:10197000D1F15350000023C0406213B12F77137090
:1019800091F15350000025C003701027515012F4FC
:101990005D5F0000115027952C3F13B1C8F61370FE
:1019A0000127015027952C3FC8F64227499303B1E0
:1019B000037010274F73115027952C3FA8F64695BA
:1019C000469513B1137079F00127015027952C3FEC
:1019D00098F66B5A60F3315003B1B0F600C011E0D5
:1019E0001CBB002719C03B503195C31BD04011E0F0
:1019F0001CBB0881033C09F10B34F9F020919E04D3
:101A00001981110F1213EDCF4A81441F093651F18C
:101A10000D3211F0013E29F70093A5043F915F912B
:101A20004F911F910F912F916F91CCB3C0FD65CF56
:101A3000DF91CF91CFBFCF9118952091A50422239C
:101A400069F31091A304112359F534305AF13093FE
:101A5000A30420939F041091A0043BE0311B30931A
:101A6000A00420C00091A3040130D4F40AE54F7013
:101A700049F43091800434FD16C000938004C3E91A
:101A8000D4E015C03AE50FC0052710E000C0000003
:101A900005B91AC0052710E0221F1DC010E021C0A3
:101AA0004AE502C032ED432FC4E1D0E032E014B188
:101AB0001360289A05B114B953E020E865E320FFCC
:101AC000052705B9279517951C3FF0F66695B8F7D9
:101AD000B1F720FF052705B9279517951C3FD0F6CC
:101AE0002795179517FF052700001C3F05B9B0F68D
:101AF00029913A9519F70C7F1091A404110FC65142
:101B0000D04005B911F010939E0411E01CBB016098
:101B100014B11C7F402F4C7F54E05A95F1F705B962
:101B200014B945B97BCF80E480938A0410928B046A
:101B300010928C0480E280938D0410928E04109297
:101B40008F040895FC01DC0111968181863319F11F
:101B5000873340F48330E9F0843131F1813009F08A
:101B600061C00FC08A3349F18B3320F4883309F008
:101B700059C015C08E3309F444C08F3309F052C0E8
:101B800022C088E880938A0411968C9180938B04FC
:101B90000895C9DF089581E080938804089581E164
:101BA00080935700E895089512968D919C91139714
:101BB000909387048093860408951296ED91FC918A
:101BC00013970995089512966C91129713967C912C
:101BD000139711968C91482F4F71807659F4AAE88B
:101BE000B4E0CB01FC0181918D938E2F861B84176D
:101BF000D0F308958034B1F48AE894E050E0E2D163
:101C000008951296ED91FC91139714962C911497C8
:101C100015969C91992329F080819823922B90838B
:101C200008952083089580E28BB97DDF10928804A7
:101C30004D9BB8C181E085BF82E085BF809169007E
:101C4000826080936900E89A209A20E040EA5FE091
:101C5000CA010197F1F72150D9F720987894309173
:101C6000A304432F435047FD39C18091A004ACE049
:101C7000B0E0A81BB109A955BB4F80919F048D32DC
:101C800009F0CCC0483009F027C17D0183EC809376
:101C900093048AE580938004109282048C9180766C
:101CA00012962C91129711969C911197882301F10D
:101CB000993019F4109285049BC0913009F080C1CD
:101CC0002093890489E894E09093A2048093A1046E
:101CD000243039F4E0918604F09187048081809368
:101CE0008A0416962C9116972F3F09F481C08BC059
:101CF00010929C04992331F410929D048CE994E095
:101D000022E071C0953019F42093A40469C0963084
:101D100009F056C0FD018381813041F48CE298E1E5
:101D20009093A2048093A10422E146C0823041F442
:101D30008EE398E19093A2048093A10422E23CC038
:101D4000833029F512968C91882341F486E098E13E
:101D50009093A2048093A10424E02EC0813041F42A
:101D60008AE098E19093A2048093A1042EE024C01D
:101D7000823019F488E198E104C08330E1F482E212
:101D800098E19093A2048093A1042AE015C08132C7
:101D900041F480E598E19093A2048093A10429E0A6
:101DA0000BC0823241F480E698E19093A2048093C4
:101DB000A10423E301C020E080E48093820423C0D7
:101DC000983019F486EA94E009C0993019F4209308
:101DD000A60406C09A3021F48CE994E021E003C007
:101DE0008CE994E020E09093A2048093A1040BC0BE
:101DF0008C9187FD02C09FEF02C016969C9180E8EF
:101E00008093820408C0F7018781882319F49681A2
:101E1000921708F0922F909381045EC08091820403
:101E200087FF5AC0209185042223B9F48C91813018
:101E300019F4CD0187DE4EC01296DC911297C0E0F6
:101E400011968C91119790E08C2B9D2B909384048C
:101E5000809383041496432F4750542F520F50936E
:101E60008504E0918304F091840413E071E065E05F
:101E7000CF018F739070892B41F4F8941093570021
:101E8000E895789407B600FCFDCFF8948D919C916D
:101E900011970C0170935700E895112478949F01D5
:101EA0002E5F3F4FC9018F739070892B41F4F894D6
:101EB00060935700E895789407B600FCFDCF425038
:101EC00019F01296F901D4CF30938404209383043F
:101ED00057FF02C0109281041092A30480918004E5
:101EE00084FF49C0809181048F3F09F444C0182FBA
:101EF000893008F018E0811B80938104809193045D
:101F000098E8892780939304112341F12091A1043B
:101F10003091A2048091820486FF0DC0A4E9B4E050
:101F200080E090E0F901E80FF91FE491ED9301964C
:101F30001817C1F708C0D901912FE4E9F4E08D9199
:101F400081939150E1F71150812F90E01F5F01962E
:101F5000820F931F9093A2048093A10484E994E0DC
:101F6000612FC3DC612F6C5F6C3019F08FEF8093B1
:101F700081046093800494E183B1837031F49150C3
:101F8000D9F71092A40410929E04809188048823AB
:101F900009F465CE20E040E45FE1CA010197F1F762
:101FA0002150D9F7F89481E180935700E8951DBA44
:101FB0001092690081E085BF15BEEE27FF270995C5
:101FC00020E021CFFB01DC0102C005900D924150C1
:061FD0005040D8F708950F
:021FD6005AFFB0
:0400000300001800E1
:00000001FF
